{
  "_format": "hh-sol-artifact-1",
  "contractName": "EventFactory",
  "sourceName": "contracts/EventFactory.sol",
  "abi": [
    {
      "anonymous": false,
      "inputs": [
        {
          "indexed": true,
          "internalType": "address",
          "name": "adresaEvent",
          "type": "address"
        },
        {
          "indexed": false,
          "internalType": "string",
          "name": "eveniment",
          "type": "string"
        },
        {
          "indexed": false,
          "internalType": "uint256",
          "name": "pretBilet",
          "type": "uint256"
        },
        {
          "indexed": false,
          "internalType": "uint256",
          "name": "disponibilitateBilete",
          "type": "uint256"
        },
        {
          "indexed": false,
          "internalType": "string",
          "name": "descriere",
          "type": "string"
        },
        {
          "indexed": false,
          "internalType": "string",
          "name": "urlImagine",
          "type": "string"
        }
      ],
      "name": "EventCreat",
      "type": "event"
    },
    {
      "inputs": [
        {
          "internalType": "string",
          "name": "_eveniment",
          "type": "string"
        },
        {
          "internalType": "uint256",
          "name": "_pretBilet",
          "type": "uint256"
        },
        {
          "internalType": "uint256",
          "name": "_disponibilitateBilete",
          "type": "uint256"
        },
        {
          "internalType": "string",
          "name": "_descriere",
          "type": "string"
        },
        {
          "internalType": "string",
          "name": "_urlImagine",
          "type": "string"
        }
      ],
      "name": "createEvent",
      "outputs": [],
      "stateMutability": "nonpayable",
      "type": "function"
    },
    {
      "inputs": [
        {
          "internalType": "uint256",
          "name": "",
          "type": "uint256"
        }
      ],
      "name": "evenimente",
      "outputs": [
        {
          "internalType": "address",
          "name": "",
          "type": "address"
        }
      ],
      "stateMutability": "view",
      "type": "function"
    },
    {
      "inputs": [],
      "name": "nextEventId",
      "outputs": [
        {
          "internalType": "uint256",
          "name": "",
          "type": "uint256"
        }
      ],
      "stateMutability": "view",
      "type": "function"
    }
  ],
  "bytecode": "0x6080604052348015600f57600080fd5b50615e4f8061001f6000396000f3fe608060405234801561001057600080fd5b50600436106100415760003560e01c80636d87bbcf146100465780637d5a895d146100625780639f9d903a14610092575b600080fd5b610060600480360381019061005b919061038f565b6100b0565b005b61007c6004803603810190610077919061045e565b6101b9565b60405161008991906104cc565b60405180910390f35b61009a6101ec565b6040516100a791906104f6565b60405180910390f35b600085858585856040516100c3906101f2565b6100d1959493929190610590565b604051809103906000f0801580156100ed573d6000803e3d6000fd5b50905080600080600154815260200190815260200160002060006101000a81548173ffffffffffffffffffffffffffffffffffffffff021916908373ffffffffffffffffffffffffffffffffffffffff1602179055508073ffffffffffffffffffffffffffffffffffffffff167f08afb0930749f0bc4473f4a10aa7ae96042df171116d7daf453b652906fa89d18787878787604051610191959493929190610590565b60405180910390a2600160008154809291906101ac90610627565b9190505550505050505050565b60006020528060005260406000206000915054906101000a900473ffffffffffffffffffffffffffffffffffffffff1681565b60015481565b6157aa8061067083390190565b6000604051905090565b600080fd5b600080fd5b600080fd5b600080fd5b6000601f19601f8301169050919050565b7f4e487b7100000000000000000000000000000000000000000000000000000000600052604160045260246000fd5b6102668261021d565b810181811067ffffffffffffffff821117156102855761028461022e565b5b80604052505050565b60006102986101ff565b90506102a4828261025d565b919050565b600067ffffffffffffffff8211156102c4576102c361022e565b5b6102cd8261021d565b9050602081019050919050565b82818337600083830152505050565b60006102fc6102f7846102a9565b61028e565b90508281526020810184848401111561031857610317610218565b5b6103238482856102da565b509392505050565b600082601f8301126103405761033f610213565b5b81356103508482602086016102e9565b91505092915050565b6000819050919050565b61036c81610359565b811461037757600080fd5b50565b60008135905061038981610363565b92915050565b600080600080600060a086880312156103ab576103aa610209565b5b600086013567ffffffffffffffff8111156103c9576103c861020e565b5b6103d58882890161032b565b95505060206103e68882890161037a565b94505060406103f78882890161037a565b935050606086013567ffffffffffffffff8111156104185761041761020e565b5b6104248882890161032b565b925050608086013567ffffffffffffffff8111156104455761044461020e565b5b6104518882890161032b565b9150509295509295909350565b60006020828403121561047457610473610209565b5b60006104828482850161037a565b91505092915050565b600073ffffffffffffffffffffffffffffffffffffffff82169050919050565b60006104b68261048b565b9050919050565b6104c6816104ab565b82525050565b60006020820190506104e160008301846104bd565b92915050565b6104f081610359565b82525050565b600060208201905061050b60008301846104e7565b92915050565b600081519050919050565b600082825260208201905092915050565b60005b8381101561054b578082015181840152602081019050610530565b60008484015250505050565b600061056282610511565b61056c818561051c565b935061057c81856020860161052d565b6105858161021d565b840191505092915050565b600060a08201905081810360008301526105aa8188610557565b90506105b960208301876104e7565b6105c660408301866104e7565b81810360608301526105d88185610557565b905081810360808301526105ec8184610557565b90509695505050505050565b7f4e487b7100000000000000000000000000000000000000000000000000000000600052601160045260246000fd5b600061063282610359565b91507fffffffffffffffffffffffffffffffffffffffffffffffffffffffffffffffff8203610664576106636105f8565b5b60018201905091905056fe608060405234801561001057600080fd5b506040516157aa3803806157aa8339818101604052810190610032919061046e565b33600073ffffffffffffffffffffffffffffffffffffffff168173ffffffffffffffffffffffffffffffffffffffff16036100a55760006040517f1e4fbdf700000000000000000000000000000000000000000000000000000000815260040161009c919061057e565b60405180910390fd5b6100b4816101f260201b60201c565b5084600190816100c491906107b0565b50836002819055508260038190555081600490816100e291906107b0565b50600580546100f0906105d3565b80601f016020809104026020016040519081016040528092919081815260200182805461011c906105d3565b80156101695780601f1061013e57610100808354040283529160200191610169565b820191906000526020600020905b81548152906001019060200180831161014c57829003601f168201915b5050505050905084843060405161017f906102b6565b61018b93929190610927565b604051809103906000f0801580156101a7573d6000803e3d6000fd5b50600660016101000a81548173ffffffffffffffffffffffffffffffffffffffff021916908373ffffffffffffffffffffffffffffffffffffffff1602179055505050505050610978565b60008060009054906101000a900473ffffffffffffffffffffffffffffffffffffffff169050816000806101000a81548173ffffffffffffffffffffffffffffffffffffffff021916908373ffffffffffffffffffffffffffffffffffffffff1602179055508173ffffffffffffffffffffffffffffffffffffffff168173ffffffffffffffffffffffffffffffffffffffff167f8be0079c531659141344cd1fd0a4f28419497f9722a3daafe3b4186f6b6457e060405160405180910390a35050565b6137c880611fe283390190565b6000604051905090565b600080fd5b600080fd5b600080fd5b600080fd5b6000601f19601f8301169050919050565b7f4e487b7100000000000000000000000000000000000000000000000000000000600052604160045260246000fd5b61032a826102e1565b810181811067ffffffffffffffff82111715610349576103486102f2565b5b80604052505050565b600061035c6102c3565b90506103688282610321565b919050565b600067ffffffffffffffff821115610388576103876102f2565b5b610391826102e1565b9050602081019050919050565b60005b838110156103bc5780820151818401526020810190506103a1565b60008484015250505050565b60006103db6103d68461036d565b610352565b9050828152602081018484840111156103f7576103f66102dc565b5b61040284828561039e565b509392505050565b600082601f83011261041f5761041e6102d7565b5b815161042f8482602086016103c8565b91505092915050565b6000819050919050565b61044b81610438565b811461045657600080fd5b50565b60008151905061046881610442565b92915050565b600080600080600060a0868803121561048a576104896102cd565b5b600086015167ffffffffffffffff8111156104a8576104a76102d2565b5b6104b48882890161040a565b95505060206104c588828901610459565b94505060406104d688828901610459565b935050606086015167ffffffffffffffff8111156104f7576104f66102d2565b5b6105038882890161040a565b925050608086015167ffffffffffffffff811115610524576105236102d2565b5b6105308882890161040a565b9150509295509295909350565b600073ffffffffffffffffffffffffffffffffffffffff82169050919050565b60006105688261053d565b9050919050565b6105788161055d565b82525050565b6000602082019050610593600083018461056f565b92915050565b600081519050919050565b7f4e487b7100000000000000000000000000000000000000000000000000000000600052602260045260246000fd5b600060028204905060018216806105eb57607f821691505b6020821081036105fe576105fd6105a4565b5b50919050565b60008190508160005260206000209050919050565b60006020601f8301049050919050565b600082821b905092915050565b6000600883026106667fffffffffffffffffffffffffffffffffffffffffffffffffffffffffffffffff82610629565b6106708683610629565b95508019841693508086168417925050509392505050565b6000819050919050565b60006106ad6106a86106a384610438565b610688565b610438565b9050919050565b6000819050919050565b6106c783610692565b6106db6106d3826106b4565b848454610636565b825550505050565b600090565b6106f06106e3565b6106fb8184846106be565b505050565b5b8181101561071f576107146000826106e8565b600181019050610701565b5050565b601f8211156107645761073581610604565b61073e84610619565b8101602085101561074d578190505b61076161075985610619565b830182610700565b50505b505050565b600082821c905092915050565b600061078760001984600802610769565b1980831691505092915050565b60006107a08383610776565b9150826002028217905092915050565b6107b982610599565b67ffffffffffffffff8111156107d2576107d16102f2565b5b6107dc82546105d3565b6107e7828285610723565b600060209050601f83116001811461081a5760008415610808578287015190505b6108128582610794565b86555061087a565b601f19841661082886610604565b60005b828110156108505784890151825560018201915060208501945060208101905061082b565b8683101561086d5784890151610869601f891682610776565b8355505b6001600288020188555050505b505050505050565b600082825260208201905092915050565b600061089e82610599565b6108a88185610882565b93506108b881856020860161039e565b6108c1816102e1565b840191505092915050565b7f42494c4554000000000000000000000000000000000000000000000000000000600082015250565b6000610902600583610882565b915061090d826108cc565b602082019050919050565b61092181610438565b82525050565b600060808201905081810360008301526109418186610893565b90508181036020830152610954816108f5565b90506109636040830185610918565b610970606083018461056f565b949350505050565b61165b806109876000396000f3fe6080604052600436106100f75760003560e01c80638da5cb5b1161008a578063bbc5c13011610059578063bbc5c130146102e0578063d79d4958146102f7578063ec70dab014610322578063f2fde38b1461034d576100fe565b80638da5cb5b14610257578063a4b7717c14610282578063a7c58e81146102ab578063b3a8ba51146102b5576100fe565b8063715018a6116100c6578063715018a6146101ad5780637afc5ae0146101c45780638826fe71146101ef5780638d80f6941461021a576100fe565b8063150b7a02146101035780631a812e43146101405780633856432c1461016b5780633ccfd60b14610196576100fe565b366100fe57005b600080fd5b34801561010f57600080fd5b5061012a60048036038101906101259190610e98565b610376565b6040516101379190610f5b565b60405180910390f35b34801561014c57600080fd5b5061015561038b565b6040516101629190610f91565b60405180910390f35b34801561017757600080fd5b5061018061039e565b60405161018d9190610fbb565b60405180910390f35b3480156101a257600080fd5b506101ab6103a4565b005b3480156101b957600080fd5b506101c2610520565b005b3480156101d057600080fd5b506101d9610534565b6040516101e69190611066565b60405180910390f35b3480156101fb57600080fd5b506102046105c2565b6040516102119190610fbb565b60405180910390f35b34801561022657600080fd5b50610241600480360381019061023c9190611088565b6105c8565b60405161024e9190610fbb565b60405180910390f35b34801561026357600080fd5b5061026c6105e0565b60405161027991906110c4565b60405180910390f35b34801561028e57600080fd5b506102a960048036038101906102a491906110df565b610609565b005b6102b3610891565b005b3480156102c157600080fd5b506102ca610a55565b6040516102d7919061116b565b60405180910390f35b3480156102ec57600080fd5b506102f5610a7b565b005b34801561030357600080fd5b5061030c610aa0565b6040516103199190611066565b60405180910390f35b34801561032e57600080fd5b50610337610b2e565b6040516103449190611066565b60405180910390f35b34801561035957600080fd5b50610374600480360381019061036f9190611088565b610bbc565b005b600063150b7a0260e01b905095945050505050565b600660009054906101000a900460ff1681565b60025481565b6000600760003373ffffffffffffffffffffffffffffffffffffffff1673ffffffffffffffffffffffffffffffffffffffff1681526020019081526020016000205490506000811161042b576040517f08c379a0000000000000000000000000000000000000000000000000000000008152600401610422906111d2565b60405180910390fd5b6000600760003373ffffffffffffffffffffffffffffffffffffffff1673ffffffffffffffffffffffffffffffffffffffff1681526020019081526020016000208190555060003373ffffffffffffffffffffffffffffffffffffffff168260405161049690611223565b60006040518083038185875af1925050503d80600081146104d3576040519150601f19603f3d011682016040523d82523d6000602084013e6104d8565b606091505b505090508061051c576040517f08c379a000000000000000000000000000000000000000000000000000000000815260040161051390611284565b60405180910390fd5b5050565b610528610c42565b6105326000610cc9565b565b60048054610541906112d3565b80601f016020809104026020016040519081016040528092919081815260200182805461056d906112d3565b80156105ba5780601f1061058f576101008083540402835291602001916105ba565b820191906000526020600020905b81548152906001019060200180831161059d57829003601f168201915b505050505081565b60035481565b60076020528060005260406000206000915090505481565b60008060009054906101000a900473ffffffffffffffffffffffffffffffffffffffff16905090565b600660009054906101000a900460ff16610658576040517f08c379a000000000000000000000000000000000000000000000000000000000815260040161064f90611350565b60405180910390fd5b3373ffffffffffffffffffffffffffffffffffffffff16600660019054906101000a900473ffffffffffffffffffffffffffffffffffffffff1673ffffffffffffffffffffffffffffffffffffffff16636352211e836040518263ffffffff1660e01b81526004016106ca9190610fbb565b602060405180830381865afa1580156106e7573d6000803e3d6000fd5b505050506040513d601f19601f8201168201806040525081019061070b9190611385565b73ffffffffffffffffffffffffffffffffffffffff1614610761576040517f08c379a0000000000000000000000000000000000000000000000000000000008152600401610758906113fe565b60405180910390fd5b600660019054906101000a900473ffffffffffffffffffffffffffffffffffffffff1673ffffffffffffffffffffffffffffffffffffffff1663cfc531683330846040518463ffffffff1660e01b81526004016107c09392919061141e565b600060405180830381600087803b1580156107da57600080fd5b505af11580156107ee573d6000803e3d6000fd5b50505050600254600760003373ffffffffffffffffffffffffffffffffffffffff1673ffffffffffffffffffffffffffffffffffffffff16815260200190815260200160002060008282546108439190611484565b92505081905550803373ffffffffffffffffffffffffffffffffffffffff167fc752d2895a48e3ce612a0b5ffb7807117b51ebc4f950e6bae1812725c4f5c66160405160405180910390a350565b600660009054906101000a900460ff16156108e1576040517f08c379a00000000000000000000000000000000000000000000000000000000081526004016108d890611504565b60405180910390fd5b6002543414610925576040517f08c379a000000000000000000000000000000000000000000000000000000000815260040161091c90611570565b60405180910390fd5b60006003541161096a576040517f08c379a0000000000000000000000000000000000000000000000000000000008152600401610961906115dc565b60405180910390fd5b600660019054906101000a900473ffffffffffffffffffffffffffffffffffffffff1673ffffffffffffffffffffffffffffffffffffffff16634d50e21e34336040518363ffffffff1660e01b81526004016109c691906110c4565b6000604051808303818588803b1580156109df57600080fd5b505af11580156109f3573d6000803e3d6000fd5b505050505060036000815480929190610a0b906115fc565b91905055503373ffffffffffffffffffffffffffffffffffffffff167f4e7e9f1ba7294ce134098dfe53fb6db3a9754b0c5e3f3cc0c029ba7d22086fa160405160405180910390a2565b600660019054906101000a900473ffffffffffffffffffffffffffffffffffffffff1681565b610a83610c42565b6001600660006101000a81548160ff021916908315150217905550565b60018054610aad906112d3565b80601f0160208091040260200160405190810160405280929190818152602001828054610ad9906112d3565b8015610b265780601f10610afb57610100808354040283529160200191610b26565b820191906000526020600020905b815481529060010190602001808311610b0957829003601f168201915b505050505081565b60058054610b3b906112d3565b80601f0160208091040260200160405190810160405280929190818152602001828054610b67906112d3565b8015610bb45780601f10610b8957610100808354040283529160200191610bb4565b820191906000526020600020905b815481529060010190602001808311610b9757829003601f168201915b505050505081565b610bc4610c42565b600073ffffffffffffffffffffffffffffffffffffffff168173ffffffffffffffffffffffffffffffffffffffff1603610c365760006040517f1e4fbdf7000000000000000000000000000000000000000000000000000000008152600401610c2d91906110c4565b60405180910390fd5b610c3f81610cc9565b50565b610c4a610d8d565b73ffffffffffffffffffffffffffffffffffffffff16610c686105e0565b73ffffffffffffffffffffffffffffffffffffffff1614610cc757610c8b610d8d565b6040517f118cdaa7000000000000000000000000000000000000000000000000000000008152600401610cbe91906110c4565b60405180910390fd5b565b60008060009054906101000a900473ffffffffffffffffffffffffffffffffffffffff169050816000806101000a81548173ffffffffffffffffffffffffffffffffffffffff021916908373ffffffffffffffffffffffffffffffffffffffff1602179055508173ffffffffffffffffffffffffffffffffffffffff168173ffffffffffffffffffffffffffffffffffffffff167f8be0079c531659141344cd1fd0a4f28419497f9722a3daafe3b4186f6b6457e060405160405180910390a35050565b600033905090565b600080fd5b600080fd5b600073ffffffffffffffffffffffffffffffffffffffff82169050919050565b6000610dca82610d9f565b9050919050565b610dda81610dbf565b8114610de557600080fd5b50565b600081359050610df781610dd1565b92915050565b6000819050919050565b610e1081610dfd565b8114610e1b57600080fd5b50565b600081359050610e2d81610e07565b92915050565b600080fd5b600080fd5b600080fd5b60008083601f840112610e5857610e57610e33565b5b8235905067ffffffffffffffff811115610e7557610e74610e38565b5b602083019150836001820283011115610e9157610e90610e3d565b5b9250929050565b600080600080600060808688031215610eb457610eb3610d95565b5b6000610ec288828901610de8565b9550506020610ed388828901610de8565b9450506040610ee488828901610e1e565b935050606086013567ffffffffffffffff811115610f0557610f04610d9a565b5b610f1188828901610e42565b92509250509295509295909350565b60007fffffffff0000000000000000000000000000000000000000000000000000000082169050919050565b610f5581610f20565b82525050565b6000602082019050610f706000830184610f4c565b92915050565b60008115159050919050565b610f8b81610f76565b82525050565b6000602082019050610fa66000830184610f82565b92915050565b610fb581610dfd565b82525050565b6000602082019050610fd06000830184610fac565b92915050565b600081519050919050565b600082825260208201905092915050565b60005b83811015611010578082015181840152602081019050610ff5565b60008484015250505050565b6000601f19601f8301169050919050565b600061103882610fd6565b6110428185610fe1565b9350611052818560208601610ff2565b61105b8161101c565b840191505092915050565b60006020820190508181036000830152611080818461102d565b905092915050565b60006020828403121561109e5761109d610d95565b5b60006110ac84828501610de8565b91505092915050565b6110be81610dbf565b82525050565b60006020820190506110d960008301846110b5565b92915050565b6000602082840312156110f5576110f4610d95565b5b600061110384828501610e1e565b91505092915050565b6000819050919050565b600061113161112c61112784610d9f565b61110c565b610d9f565b9050919050565b600061114382611116565b9050919050565b600061115582611138565b9050919050565b6111658161114a565b82525050565b6000602082019050611180600083018461115c565b92915050565b7f4e7520616920666f6e6475726920646520726574726173000000000000000000600082015250565b60006111bc601783610fe1565b91506111c782611186565b602082019050919050565b600060208201905081810360008301526111eb816111af565b9050919050565b600081905092915050565b50565b600061120d6000836111f2565b9150611218826111fd565b600082019050919050565b600061122e82611200565b9150819050919050565b7f5472616e73666572206573756174000000000000000000000000000000000000600082015250565b600061126e600e83610fe1565b915061127982611238565b602082019050919050565b6000602082019050818103600083015261129d81611261565b9050919050565b7f4e487b7100000000000000000000000000000000000000000000000000000000600052602260045260246000fd5b600060028204905060018216806112eb57607f821691505b6020821081036112fe576112fd6112a4565b5b50919050565b7f4576656e696d656e74756c206e75206573746520616e756c6174000000000000600082015250565b600061133a601a83610fe1565b915061134582611304565b602082019050919050565b600060208201905081810360008301526113698161132d565b9050919050565b60008151905061137f81610dd1565b92915050565b60006020828403121561139b5761139a610d95565b5b60006113a984828501611370565b91505092915050565b7f4e752064657469692061636573742062696c6574000000000000000000000000600082015250565b60006113e8601483610fe1565b91506113f3826113b2565b602082019050919050565b60006020820190508181036000830152611417816113db565b9050919050565b600060608201905061143360008301866110b5565b61144060208301856110b5565b61144d6040830184610fac565b949350505050565b7f4e487b7100000000000000000000000000000000000000000000000000000000600052601160045260246000fd5b600061148f82610dfd565b915061149a83610dfd565b92508282019050808211156114b2576114b1611455565b5b92915050565b7f4576656e696d656e74756c206573746520616e756c6174000000000000000000600082015250565b60006114ee601783610fe1565b91506114f9826114b8565b602082019050919050565b6000602082019050818103600083015261151d816114e1565b9050919050565b7f53756d6120455448206772657369746100000000000000000000000000000000600082015250565b600061155a601083610fe1565b915061156582611524565b602082019050919050565b600060208201905081810360008301526115898161154d565b9050919050565b7f4e75206d61692073756e742062696c65746520646973706f6e6962696c650000600082015250565b60006115c6601e83610fe1565b91506115d182611590565b602082019050919050565b600060208201905081810360008301526115f5816115b9565b9050919050565b600061160782610dfd565b91506000820361161a57611619611455565b5b60018203905091905056fea2646970667358221220180376f0ac875128cf74363c93bfa68e392e3ce4a2aeec01266675a83bdc963464736f6c634300081c0033608060405234801561001057600080fd5b506040516137c83803806137c8833981810160405281019061003291906103f9565b808484816000908161004491906106af565b50806001908161005491906106af565b505050600073ffffffffffffffffffffffffffffffffffffffff168173ffffffffffffffffffffffffffffffffffffffff16036100c95760006040517f1e4fbdf70000000000000000000000000000000000000000000000000000000081526004016100c09190610790565b60405180910390fd5b6100d88161012a60201b60201c565b5081600c8190555080600e60006101000a81548173ffffffffffffffffffffffffffffffffffffffff021916908373ffffffffffffffffffffffffffffffffffffffff160217905550505050506107ab565b6000600b60009054906101000a900473ffffffffffffffffffffffffffffffffffffffff16905081600b60006101000a81548173ffffffffffffffffffffffffffffffffffffffff021916908373ffffffffffffffffffffffffffffffffffffffff1602179055508173ffffffffffffffffffffffffffffffffffffffff168173ffffffffffffffffffffffffffffffffffffffff167f8be0079c531659141344cd1fd0a4f28419497f9722a3daafe3b4186f6b6457e060405160405180910390a35050565b6000604051905090565b600080fd5b600080fd5b600080fd5b600080fd5b6000601f19601f8301169050919050565b7f4e487b7100000000000000000000000000000000000000000000000000000000600052604160045260246000fd5b6102578261020e565b810181811067ffffffffffffffff821117156102765761027561021f565b5b80604052505050565b60006102896101f0565b9050610295828261024e565b919050565b600067ffffffffffffffff8211156102b5576102b461021f565b5b6102be8261020e565b9050602081019050919050565b60005b838110156102e95780820151818401526020810190506102ce565b60008484015250505050565b60006103086103038461029a565b61027f565b90508281526020810184848401111561032457610323610209565b5b61032f8482856102cb565b509392505050565b600082601f83011261034c5761034b610204565b5b815161035c8482602086016102f5565b91505092915050565b6000819050919050565b61037881610365565b811461038357600080fd5b50565b6000815190506103958161036f565b92915050565b600073ffffffffffffffffffffffffffffffffffffffff82169050919050565b60006103c68261039b565b9050919050565b6103d6816103bb565b81146103e157600080fd5b50565b6000815190506103f3816103cd565b92915050565b60008060008060808587031215610413576104126101fa565b5b600085015167ffffffffffffffff811115610431576104306101ff565b5b61043d87828801610337565b945050602085015167ffffffffffffffff81111561045e5761045d6101ff565b5b61046a87828801610337565b935050604061047b87828801610386565b925050606061048c878288016103e4565b91505092959194509250565b600081519050919050565b7f4e487b7100000000000000000000000000000000000000000000000000000000600052602260045260246000fd5b600060028204905060018216806104ea57607f821691505b6020821081036104fd576104fc6104a3565b5b50919050565b60008190508160005260206000209050919050565b60006020601f8301049050919050565b600082821b905092915050565b6000600883026105657fffffffffffffffffffffffffffffffffffffffffffffffffffffffffffffffff82610528565b61056f8683610528565b95508019841693508086168417925050509392505050565b6000819050919050565b60006105ac6105a76105a284610365565b610587565b610365565b9050919050565b6000819050919050565b6105c683610591565b6105da6105d2826105b3565b848454610535565b825550505050565b600090565b6105ef6105e2565b6105fa8184846105bd565b505050565b5b8181101561061e576106136000826105e7565b600181019050610600565b5050565b601f8211156106635761063481610503565b61063d84610518565b8101602085101561064c578190505b61066061065885610518565b8301826105ff565b50505b505050565b600082821c905092915050565b600061068660001984600802610668565b1980831691505092915050565b600061069f8383610675565b9150826002028217905092915050565b6106b882610498565b67ffffffffffffffff8111156106d1576106d061021f565b5b6106db82546104d2565b6106e6828285610622565b600060209050601f8311600181146107195760008415610707578287015190505b6107118582610693565b865550610779565b601f19841661072786610503565b60005b8281101561074f5784890151825560018201915060208501945060208101905061072a565b8683101561076c5784890151610768601f891682610675565b8355505b6001600288020188555050505b505050505050565b61078a816103bb565b82525050565b60006020820190506107a56000830184610781565b92915050565b61300e806107ba6000396000f3fe60806040526004361061014b5760003560e01c80636352211e116100b6578063b88d4fde1161006f578063b88d4fde14610497578063c87b56dd146104c0578063cfc53168146104fd578063e274fd2414610526578063e985e9c514610551578063f2fde38b1461058e5761014b565b80636352211e1461038757806370a08231146103c4578063715018a6146104015780638da5cb5b1461041857806395d89b4114610443578063a22cb4651461046e5761014b565b806323b872dd1161010857806323b872dd146102745780632f745c591461029d5780633856432c146102da57806342842e0e146103055780634d50e21e1461032e5780634f6ccce71461034a5761014b565b806301ffc9a71461015057806306fdde031461018d578063081812fc146101b8578063095ea7b3146101f557806318160ddd1461021e578063236818a614610249575b600080fd5b34801561015c57600080fd5b50610177600480360381019061017291906125d9565b6105b7565b6040516101849190612621565b60405180910390f35b34801561019957600080fd5b506101a26105c9565b6040516101af91906126cc565b60405180910390f35b3480156101c457600080fd5b506101df60048036038101906101da9190612724565b61065b565b6040516101ec9190612792565b60405180910390f35b34801561020157600080fd5b5061021c600480360381019061021791906127d9565b610677565b005b34801561022a57600080fd5b5061023361068d565b6040516102409190612828565b60405180910390f35b34801561025557600080fd5b5061025e61069a565b60405161026b9190612828565b60405180910390f35b34801561028057600080fd5b5061029b60048036038101906102969190612843565b6106a0565b005b3480156102a957600080fd5b506102c460048036038101906102bf91906127d9565b6107a2565b6040516102d19190612828565b60405180910390f35b3480156102e657600080fd5b506102ef61084b565b6040516102fc9190612828565b60405180910390f35b34801561031157600080fd5b5061032c60048036038101906103279190612843565b610851565b005b61034860048036038101906103439190612896565b610871565b005b34801561035657600080fd5b50610371600480360381019061036c9190612724565b6109fb565b60405161037e9190612828565b60405180910390f35b34801561039357600080fd5b506103ae60048036038101906103a99190612724565b610a71565b6040516103bb9190612792565b60405180910390f35b3480156103d057600080fd5b506103eb60048036038101906103e69190612896565b610a83565b6040516103f89190612828565b60405180910390f35b34801561040d57600080fd5b50610416610b3d565b005b34801561042457600080fd5b5061042d610b51565b60405161043a9190612792565b60405180910390f35b34801561044f57600080fd5b50610458610b7b565b60405161046591906126cc565b60405180910390f35b34801561047a57600080fd5b50610495600480360381019061049091906128ef565b610c0d565b005b3480156104a357600080fd5b506104be60048036038101906104b99190612a64565b610c23565b005b3480156104cc57600080fd5b506104e760048036038101906104e29190612724565b610c48565b6040516104f491906126cc565b60405180910390f35b34801561050957600080fd5b50610524600480360381019061051f9190612843565b610c5a565b005b34801561053257600080fd5b5061053b610cfa565b6040516105489190612792565b60405180910390f35b34801561055d57600080fd5b5061057860048036038101906105739190612ae7565b610d20565b6040516105859190612621565b60405180910390f35b34801561059a57600080fd5b506105b560048036038101906105b09190612896565b610db4565b005b60006105c282610e3a565b9050919050565b6060600080546105d890612b56565b80601f016020809104026020016040519081016040528092919081815260200182805461060490612b56565b80156106515780601f1061062657610100808354040283529160200191610651565b820191906000526020600020905b81548152906001019060200180831161063457829003601f168201915b5050505050905090565b600061066682610eb4565b5061067082610f3c565b9050919050565b6106898282610684610f79565b610f81565b5050565b6000600980549050905090565b600d5481565b600073ffffffffffffffffffffffffffffffffffffffff168273ffffffffffffffffffffffffffffffffffffffff16036107125760006040517f64a0ae920000000000000000000000000000000000000000000000000000000081526004016107099190612792565b60405180910390fd5b60006107268383610721610f79565b610f93565b90508373ffffffffffffffffffffffffffffffffffffffff168173ffffffffffffffffffffffffffffffffffffffff161461079c578382826040517f64283d7b00000000000000000000000000000000000000000000000000000000815260040161079393929190612b87565b60405180910390fd5b50505050565b60006107ad83610a83565b82106107f25782826040517fa57d13dc0000000000000000000000000000000000000000000000000000000081526004016107e9929190612bbe565b60405180910390fd5b600760008473ffffffffffffffffffffffffffffffffffffffff1673ffffffffffffffffffffffffffffffffffffffff168152602001908152602001600020600083815260200190815260200160002054905092915050565b600c5481565b61086c83838360405180602001604052806000815250610c23565b505050565b600c5434146108b5576040517f08c379a00000000000000000000000000000000000000000000000000000000081526004016108ac90612c33565b60405180910390fd5b60006001600d546108c69190612c82565b90506108d28282610fa9565b808273ffffffffffffffffffffffffffffffffffffffff167fb543c60b60401bfae555081027cadafe6c90d8d087d74b8f6c07173692a2c83960405160405180910390a36000600e60009054906101000a900473ffffffffffffffffffffffffffffffffffffffff1673ffffffffffffffffffffffffffffffffffffffff163460405161095e90612ce7565b60006040518083038185875af1925050503d806000811461099b576040519150601f19603f3d011682016040523d82523d6000602084013e6109a0565b606091505b50509050806109e4576040517f08c379a00000000000000000000000000000000000000000000000000000000081526004016109db90612d48565b60405180910390fd5b600d60008154809291906001019190505550505050565b6000610a0561068d565b8210610a4b576000826040517fa57d13dc000000000000000000000000000000000000000000000000000000008152600401610a42929190612bbe565b60405180910390fd5b60098281548110610a5f57610a5e612d68565b5b90600052602060002001549050919050565b6000610a7c82610eb4565b9050919050565b60008073ffffffffffffffffffffffffffffffffffffffff168273ffffffffffffffffffffffffffffffffffffffff1603610af65760006040517f89c62b64000000000000000000000000000000000000000000000000000000008152600401610aed9190612792565b60405180910390fd5b600360008373ffffffffffffffffffffffffffffffffffffffff1673ffffffffffffffffffffffffffffffffffffffff168152602001908152602001600020549050919050565b610b45610fc7565b610b4f600061104e565b565b6000600b60009054906101000a900473ffffffffffffffffffffffffffffffffffffffff16905090565b606060018054610b8a90612b56565b80601f0160208091040260200160405190810160405280929190818152602001828054610bb690612b56565b8015610c035780601f10610bd857610100808354040283529160200191610c03565b820191906000526020600020905b815481529060010190602001808311610be657829003601f168201915b5050505050905090565b610c1f610c18610f79565b8383611114565b5050565b610c2e8484846106a0565b610c42610c39610f79565b85858585611283565b50505050565b6060610c5382611434565b9050919050565b600e60009054906101000a900473ffffffffffffffffffffffffffffffffffffffff1673ffffffffffffffffffffffffffffffffffffffff163373ffffffffffffffffffffffffffffffffffffffff1614610cea576040517f08c379a0000000000000000000000000000000000000000000000000000000008152600401610ce190612de3565b60405180910390fd5b610cf5838383611547565b505050565b600e60009054906101000a900473ffffffffffffffffffffffffffffffffffffffff1681565b6000600560008473ffffffffffffffffffffffffffffffffffffffff1673ffffffffffffffffffffffffffffffffffffffff16815260200190815260200160002060008373ffffffffffffffffffffffffffffffffffffffff1673ffffffffffffffffffffffffffffffffffffffff16815260200190815260200160002060009054906101000a900460ff16905092915050565b610dbc610fc7565b600073ffffffffffffffffffffffffffffffffffffffff168173ffffffffffffffffffffffffffffffffffffffff1603610e2e5760006040517f1e4fbdf7000000000000000000000000000000000000000000000000000000008152600401610e259190612792565b60405180910390fd5b610e378161104e565b50565b60007f780e9d63000000000000000000000000000000000000000000000000000000007bffffffffffffffffffffffffffffffffffffffffffffffffffffffff1916827bffffffffffffffffffffffffffffffffffffffffffffffffffffffff19161480610ead5750610eac826116b4565b5b9050919050565b600080610ec083611715565b9050600073ffffffffffffffffffffffffffffffffffffffff168173ffffffffffffffffffffffffffffffffffffffff1603610f3357826040517f7e273289000000000000000000000000000000000000000000000000000000008152600401610f2a9190612828565b60405180910390fd5b80915050919050565b60006004600083815260200190815260200160002060009054906101000a900473ffffffffffffffffffffffffffffffffffffffff169050919050565b600033905090565b610f8e8383836001611752565b505050565b6000610fa0848484611917565b90509392505050565b610fc3828260405180602001604052806000815250611a34565b5050565b610fcf610f79565b73ffffffffffffffffffffffffffffffffffffffff16610fed610b51565b73ffffffffffffffffffffffffffffffffffffffff161461104c57611010610f79565b6040517f118cdaa70000000000000000000000000000000000000000000000000000000081526004016110439190612792565b60405180910390fd5b565b6000600b60009054906101000a900473ffffffffffffffffffffffffffffffffffffffff16905081600b60006101000a81548173ffffffffffffffffffffffffffffffffffffffff021916908373ffffffffffffffffffffffffffffffffffffffff1602179055508173ffffffffffffffffffffffffffffffffffffffff168173ffffffffffffffffffffffffffffffffffffffff167f8be0079c531659141344cd1fd0a4f28419497f9722a3daafe3b4186f6b6457e060405160405180910390a35050565b600073ffffffffffffffffffffffffffffffffffffffff168273ffffffffffffffffffffffffffffffffffffffff160361118557816040517f5b08ba1800000000000000000000000000000000000000000000000000000000815260040161117c9190612792565b60405180910390fd5b80600560008573ffffffffffffffffffffffffffffffffffffffff1673ffffffffffffffffffffffffffffffffffffffff16815260200190815260200160002060008473ffffffffffffffffffffffffffffffffffffffff1673ffffffffffffffffffffffffffffffffffffffff16815260200190815260200160002060006101000a81548160ff0219169083151502179055508173ffffffffffffffffffffffffffffffffffffffff168373ffffffffffffffffffffffffffffffffffffffff167f17307eab39ab6107e8899845ad3d59bd9653f200f220920489ca2b5937696c31836040516112769190612621565b60405180910390a3505050565b60008373ffffffffffffffffffffffffffffffffffffffff163b111561142d578273ffffffffffffffffffffffffffffffffffffffff1663150b7a02868685856040518563ffffffff1660e01b81526004016112e29493929190612e58565b6020604051808303816000875af192505050801561131e57506040513d601f19601f8201168201806040525081019061131b9190612eb9565b60015b6113a2573d806000811461134e576040519150601f19603f3d011682016040523d82523d6000602084013e611353565b606091505b50600081510361139a57836040517f64a0ae920000000000000000000000000000000000000000000000000000000081526004016113919190612792565b60405180910390fd5b805181602001fd5b63150b7a0260e01b7bffffffffffffffffffffffffffffffffffffffffffffffffffffffff1916817bffffffffffffffffffffffffffffffffffffffffffffffffffffffff19161461142b57836040517f64a0ae920000000000000000000000000000000000000000000000000000000081526004016114229190612792565b60405180910390fd5b505b5050505050565b606061143f82610eb4565b50600060066000848152602001908152602001600020805461146090612b56565b80601f016020809104026020016040519081016040528092919081815260200182805461148c90612b56565b80156114d95780601f106114ae576101008083540402835291602001916114d9565b820191906000526020600020905b8154815290600101906020018083116114bc57829003601f168201915b5050505050905060006114ea611a58565b905060008151036114ff578192505050611542565b60008251111561153457808260405160200161151c929190612f22565b60405160208183030381529060405292505050611542565b61153d84611a6f565b925050505b919050565b600073ffffffffffffffffffffffffffffffffffffffff168273ffffffffffffffffffffffffffffffffffffffff16036115b95760006040517f64a0ae920000000000000000000000000000000000000000000000000000000081526004016115b09190612792565b60405180910390fd5b60006115c783836000610f93565b9050600073ffffffffffffffffffffffffffffffffffffffff168173ffffffffffffffffffffffffffffffffffffffff160361163a57816040517f7e2732890000000000000000000000000000000000000000000000000000000081526004016116319190612828565b60405180910390fd5b8373ffffffffffffffffffffffffffffffffffffffff168173ffffffffffffffffffffffffffffffffffffffff16146116ae578382826040517f64283d7b0000000000000000000000000000000000000000000000000000000081526004016116a593929190612b87565b60405180910390fd5b50505050565b6000634906490660e01b7bffffffffffffffffffffffffffffffffffffffffffffffffffffffff1916827bffffffffffffffffffffffffffffffffffffffffffffffffffffffff1916148061170e575061170d82611ad8565b5b9050919050565b60006002600083815260200190815260200160002060009054906101000a900473ffffffffffffffffffffffffffffffffffffffff169050919050565b808061178b5750600073ffffffffffffffffffffffffffffffffffffffff168273ffffffffffffffffffffffffffffffffffffffff1614155b156118bf57600061179b84610eb4565b9050600073ffffffffffffffffffffffffffffffffffffffff168373ffffffffffffffffffffffffffffffffffffffff161415801561180657508273ffffffffffffffffffffffffffffffffffffffff168173ffffffffffffffffffffffffffffffffffffffff1614155b801561181957506118178184610d20565b155b1561185b57826040517fa9fbf51f0000000000000000000000000000000000000000000000000000000081526004016118529190612792565b60405180910390fd5b81156118bd57838573ffffffffffffffffffffffffffffffffffffffff168273ffffffffffffffffffffffffffffffffffffffff167f8c5be1e5ebec7d5bd14f71427d1e84f3dd0314c0f7b2291e5b200ac8c7c3b92560405160405180910390a45b505b836004600085815260200190815260200160002060006101000a81548173ffffffffffffffffffffffffffffffffffffffff021916908373ffffffffffffffffffffffffffffffffffffffff16021790555050505050565b600080611925858585611bba565b9050600073ffffffffffffffffffffffffffffffffffffffff168173ffffffffffffffffffffffffffffffffffffffff16036119695761196484611dd4565b6119a8565b8473ffffffffffffffffffffffffffffffffffffffff168173ffffffffffffffffffffffffffffffffffffffff16146119a7576119a68185611e1d565b5b5b600073ffffffffffffffffffffffffffffffffffffffff168573ffffffffffffffffffffffffffffffffffffffff16036119ea576119e584611f08565b611a29565b8473ffffffffffffffffffffffffffffffffffffffff168173ffffffffffffffffffffffffffffffffffffffff1614611a2857611a278585611fd9565b5b5b809150509392505050565b611a3e8383612064565b611a53611a49610f79565b6000858585611283565b505050565b606060405180602001604052806000815250905090565b6060611a7a82610eb4565b506000611a85611a58565b90506000815111611aa55760405180602001604052806000815250611ad0565b80611aaf8461215d565b604051602001611ac0929190612f22565b6040516020818303038152906040525b915050919050565b60007f80ac58cd000000000000000000000000000000000000000000000000000000007bffffffffffffffffffffffffffffffffffffffffffffffffffffffff1916827bffffffffffffffffffffffffffffffffffffffffffffffffffffffff19161480611ba357507f5b5e139f000000000000000000000000000000000000000000000000000000007bffffffffffffffffffffffffffffffffffffffffffffffffffffffff1916827bffffffffffffffffffffffffffffffffffffffffffffffffffffffff1916145b80611bb35750611bb28261222b565b5b9050919050565b600080611bc684611715565b9050600073ffffffffffffffffffffffffffffffffffffffff168373ffffffffffffffffffffffffffffffffffffffff1614611c0857611c07818486612295565b5b600073ffffffffffffffffffffffffffffffffffffffff168173ffffffffffffffffffffffffffffffffffffffff1614611c9957611c4a600085600080611752565b6001600360008373ffffffffffffffffffffffffffffffffffffffff1673ffffffffffffffffffffffffffffffffffffffff168152602001908152602001600020600082825403925050819055505b600073ffffffffffffffffffffffffffffffffffffffff168573ffffffffffffffffffffffffffffffffffffffff1614611d1c576001600360008773ffffffffffffffffffffffffffffffffffffffff1673ffffffffffffffffffffffffffffffffffffffff168152602001908152602001600020600082825401925050819055505b846002600086815260200190815260200160002060006101000a81548173ffffffffffffffffffffffffffffffffffffffff021916908373ffffffffffffffffffffffffffffffffffffffff160217905550838573ffffffffffffffffffffffffffffffffffffffff168273ffffffffffffffffffffffffffffffffffffffff167fddf252ad1be2c89b69c2b068fc378daa952ba7f163c4a11628f55a4df523b3ef60405160405180910390a4809150509392505050565b600980549050600a600083815260200190815260200160002081905550600981908060018154018082558091505060019003906000526020600020016000909190919091505550565b6000611e2883610a83565b90506000600860008481526020019081526020016000205490506000600760008673ffffffffffffffffffffffffffffffffffffffff1673ffffffffffffffffffffffffffffffffffffffff1681526020019081526020016000209050828214611ed45760008160008581526020019081526020016000205490508082600085815260200190815260200160002081905550826008600083815260200190815260200160002081905550505b6008600085815260200190815260200160002060009055806000848152602001908152602001600020600090555050505050565b60006001600980549050611f1c9190612f46565b90506000600a6000848152602001908152602001600020549050600060098381548110611f4c57611f4b612d68565b5b906000526020600020015490508060098381548110611f6e57611f6d612d68565b5b906000526020600020018190555081600a600083815260200190815260200160002081905550600a6000858152602001908152602001600020600090556009805480611fbd57611fbc612f7a565b5b6001900381819060005260206000200160009055905550505050565b60006001611fe684610a83565b611ff09190612f46565b905081600760008573ffffffffffffffffffffffffffffffffffffffff1673ffffffffffffffffffffffffffffffffffffffff168152602001908152602001600020600083815260200190815260200160002081905550806008600084815260200190815260200160002081905550505050565b600073ffffffffffffffffffffffffffffffffffffffff168273ffffffffffffffffffffffffffffffffffffffff16036120d65760006040517f64a0ae920000000000000000000000000000000000000000000000000000000081526004016120cd9190612792565b60405180910390fd5b60006120e483836000610f93565b9050600073ffffffffffffffffffffffffffffffffffffffff168173ffffffffffffffffffffffffffffffffffffffff16146121585760006040517f73c6ac6e00000000000000000000000000000000000000000000000000000000815260040161214f9190612792565b60405180910390fd5b505050565b60606000600161216c84612359565b01905060008167ffffffffffffffff81111561218b5761218a612939565b5b6040519080825280601f01601f1916602001820160405280156121bd5781602001600182028036833780820191505090505b509050600082602001820190505b600115612220578080600190039150507f3031323334353637383961626364656600000000000000000000000000000000600a86061a8153600a858161221457612213612fa9565b5b049450600085036121cb575b819350505050919050565b60007f01ffc9a7000000000000000000000000000000000000000000000000000000007bffffffffffffffffffffffffffffffffffffffffffffffffffffffff1916827bffffffffffffffffffffffffffffffffffffffffffffffffffffffff1916149050919050565b6122a08383836124ac565b61235457600073ffffffffffffffffffffffffffffffffffffffff168373ffffffffffffffffffffffffffffffffffffffff160361231557806040517f7e27328900000000000000000000000000000000000000000000000000000000815260040161230c9190612828565b60405180910390fd5b81816040517f177e802f00000000000000000000000000000000000000000000000000000000815260040161234b929190612bbe565b60405180910390fd5b505050565b600080600090507a184f03e93ff9f4daa797ed6e38ed64bf6a1f01000000000000000083106123b7577a184f03e93ff9f4daa797ed6e38ed64bf6a1f01000000000000000083816123ad576123ac612fa9565b5b0492506040810190505b6d04ee2d6d415b85acef810000000083106123f4576d04ee2d6d415b85acef810000000083816123ea576123e9612fa9565b5b0492506020810190505b662386f26fc10000831061242357662386f26fc10000838161241957612418612fa9565b5b0492506010810190505b6305f5e100831061244c576305f5e100838161244257612441612fa9565b5b0492506008810190505b612710831061247157612710838161246757612466612fa9565b5b0492506004810190505b60648310612494576064838161248a57612489612fa9565b5b0492506002810190505b600a83106124a3576001810190505b80915050919050565b60008073ffffffffffffffffffffffffffffffffffffffff168373ffffffffffffffffffffffffffffffffffffffff161415801561256457508273ffffffffffffffffffffffffffffffffffffffff168473ffffffffffffffffffffffffffffffffffffffff16148061252557506125248484610d20565b5b8061256357508273ffffffffffffffffffffffffffffffffffffffff1661254b83610f3c565b73ffffffffffffffffffffffffffffffffffffffff16145b5b90509392505050565b6000604051905090565b600080fd5b600080fd5b60007fffffffff0000000000000000000000000000000000000000000000000000000082169050919050565b6125b681612581565b81146125c157600080fd5b50565b6000813590506125d3816125ad565b92915050565b6000602082840312156125ef576125ee612577565b5b60006125fd848285016125c4565b91505092915050565b60008115159050919050565b61261b81612606565b82525050565b60006020820190506126366000830184612612565b92915050565b600081519050919050565b600082825260208201905092915050565b60005b8381101561267657808201518184015260208101905061265b565b60008484015250505050565b6000601f19601f8301169050919050565b600061269e8261263c565b6126a88185612647565b93506126b8818560208601612658565b6126c181612682565b840191505092915050565b600060208201905081810360008301526126e68184612693565b905092915050565b6000819050919050565b612701816126ee565b811461270c57600080fd5b50565b60008135905061271e816126f8565b92915050565b60006020828403121561273a57612739612577565b5b60006127488482850161270f565b91505092915050565b600073ffffffffffffffffffffffffffffffffffffffff82169050919050565b600061277c82612751565b9050919050565b61278c81612771565b82525050565b60006020820190506127a76000830184612783565b92915050565b6127b681612771565b81146127c157600080fd5b50565b6000813590506127d3816127ad565b92915050565b600080604083850312156127f0576127ef612577565b5b60006127fe858286016127c4565b925050602061280f8582860161270f565b9150509250929050565b612822816126ee565b82525050565b600060208201905061283d6000830184612819565b92915050565b60008060006060848603121561285c5761285b612577565b5b600061286a868287016127c4565b935050602061287b868287016127c4565b925050604061288c8682870161270f565b9150509250925092565b6000602082840312156128ac576128ab612577565b5b60006128ba848285016127c4565b91505092915050565b6128cc81612606565b81146128d757600080fd5b50565b6000813590506128e9816128c3565b92915050565b6000806040838503121561290657612905612577565b5b6000612914858286016127c4565b9250506020612925858286016128da565b9150509250929050565b600080fd5b600080fd5b7f4e487b7100000000000000000000000000000000000000000000000000000000600052604160045260246000fd5b61297182612682565b810181811067ffffffffffffffff821117156129905761298f612939565b5b80604052505050565b60006129a361256d565b90506129af8282612968565b919050565b600067ffffffffffffffff8211156129cf576129ce612939565b5b6129d882612682565b9050602081019050919050565b82818337600083830152505050565b6000612a07612a02846129b4565b612999565b905082815260208101848484011115612a2357612a22612934565b5b612a2e8482856129e5565b509392505050565b600082601f830112612a4b57612a4a61292f565b5b8135612a5b8482602086016129f4565b91505092915050565b60008060008060808587031215612a7e57612a7d612577565b5b6000612a8c878288016127c4565b9450506020612a9d878288016127c4565b9350506040612aae8782880161270f565b925050606085013567ffffffffffffffff811115612acf57612ace61257c565b5b612adb87828801612a36565b91505092959194509250565b60008060408385031215612afe57612afd612577565b5b6000612b0c858286016127c4565b9250506020612b1d858286016127c4565b9150509250929050565b7f4e487b7100000000000000000000000000000000000000000000000000000000600052602260045260246000fd5b60006002820490506001821680612b6e57607f821691505b602082108103612b8157612b80612b27565b5b50919050565b6000606082019050612b9c6000830186612783565b612ba96020830185612819565b612bb66040830184612783565b949350505050565b6000604082019050612bd36000830185612783565b612be06020830184612819565b9392505050565b7f53756d612064652045544820696e636f72656374207472696d69736100000000600082015250565b6000612c1d601c83612647565b9150612c2882612be7565b602082019050919050565b60006020820190508181036000830152612c4c81612c10565b9050919050565b7f4e487b7100000000000000000000000000000000000000000000000000000000600052601160045260246000fd5b6000612c8d826126ee565b9150612c98836126ee565b9250828201905080821115612cb057612caf612c53565b5b92915050565b600081905092915050565b50565b6000612cd1600083612cb6565b9150612cdc82612cc1565b600082019050919050565b6000612cf282612cc4565b9150819050919050565b7f5472616e73666572204554482065737561740000000000000000000000000000600082015250565b6000612d32601283612647565b9150612d3d82612cfc565b602082019050919050565b60006020820190508181036000830152612d6181612d25565b9050919050565b7f4e487b7100000000000000000000000000000000000000000000000000000000600052603260045260246000fd5b7f4163636573206e656175746f72697a6174000000000000000000000000000000600082015250565b6000612dcd601183612647565b9150612dd882612d97565b602082019050919050565b60006020820190508181036000830152612dfc81612dc0565b9050919050565b600081519050919050565b600082825260208201905092915050565b6000612e2a82612e03565b612e348185612e0e565b9350612e44818560208601612658565b612e4d81612682565b840191505092915050565b6000608082019050612e6d6000830187612783565b612e7a6020830186612783565b612e876040830185612819565b8181036060830152612e998184612e1f565b905095945050505050565b600081519050612eb3816125ad565b92915050565b600060208284031215612ecf57612ece612577565b5b6000612edd84828501612ea4565b91505092915050565b600081905092915050565b6000612efc8261263c565b612f068185612ee6565b9350612f16818560208601612658565b80840191505092915050565b6000612f2e8285612ef1565b9150612f3a8284612ef1565b91508190509392505050565b6000612f51826126ee565b9150612f5c836126ee565b9250828203905081811115612f7457612f73612c53565b5b92915050565b7f4e487b7100000000000000000000000000000000000000000000000000000000600052603160045260246000fd5b7f4e487b7100000000000000000000000000000000000000000000000000000000600052601260045260246000fdfea26469706673582212201b2f8f234aa7dda1ca3fa30261c89aeff31cf25e795ad06ce3074c523154fe1164736f6c634300081c0033a26469706673582212204df0ea389cdc9477d8a17e9197f1a143b4461378914d2331e4bbaa3d5c30b31364736f6c634300081c0033",
  "linkReferences": {},
  "deployedLinkReferences": {}
}