{
  "_format": "hh-sol-artifact-1",
  "contractName": "EventFactory",
  "sourceName": "contracts/EventFactory.sol",
  "abi": [
    {
      "anonymous": false,
      "inputs": [
        {
          "indexed": true,
          "internalType": "address",
          "name": "adresaEvent",
          "type": "address"
        },
        {
          "indexed": false,
          "internalType": "string",
          "name": "eveniment",
          "type": "string"
        },
        {
          "indexed": false,
          "internalType": "uint256",
          "name": "pretBilet",
          "type": "uint256"
        },
        {
          "indexed": false,
          "internalType": "uint256",
          "name": "disponibilitateBilete",
          "type": "uint256"
        }
      ],
      "name": "EventCreat",
      "type": "event"
    },
    {
      "inputs": [
        {
          "internalType": "string",
          "name": "_eveniment",
          "type": "string"
        },
        {
          "internalType": "uint256",
          "name": "_pretBilet",
          "type": "uint256"
        },
        {
          "internalType": "uint256",
          "name": "_disponibilitateBilete",
          "type": "uint256"
        }
      ],
      "name": "createEvent",
      "outputs": [],
      "stateMutability": "nonpayable",
      "type": "function"
    },
    {
      "inputs": [
        {
          "internalType": "uint256",
          "name": "",
          "type": "uint256"
        }
      ],
      "name": "evenimente",
      "outputs": [
        {
          "internalType": "address",
          "name": "",
          "type": "address"
        }
      ],
      "stateMutability": "view",
      "type": "function"
    },
    {
      "inputs": [],
      "name": "getEvents",
      "outputs": [
        {
          "internalType": "address[]",
          "name": "",
          "type": "address[]"
        }
      ],
      "stateMutability": "view",
      "type": "function"
    },
    {
      "inputs": [],
      "name": "nextEventId",
      "outputs": [
        {
          "internalType": "uint256",
          "name": "",
          "type": "uint256"
        }
      ],
      "stateMutability": "view",
      "type": "function"
    }
  ],
  "bytecode": "0x6080604052348015600f57600080fd5b50615d448061001f6000396000f3fe608060405234801561001057600080fd5b506004361061004c5760003560e01c8063404aa8f9146100515780637d5a895d1461006f5780639e9580f61461009f5780639f9d903a146100bb575b600080fd5b6100596100d9565b6040516100669190610401565b60405180910390f35b6100896004803603810190610084919061046d565b6101cc565b60405161009691906104a9565b60405180910390f35b6100b960048036038101906100b4919061060a565b6101ff565b005b6100c36102fe565b6040516100d09190610688565b60405180910390f35b6060600060015467ffffffffffffffff8111156100f9576100f86104df565b5b6040519080825280602002602001820160405280156101275781602001602082028036833780820191505090505b50905060005b6001548110156101c45760008082815260200190815260200160002060009054906101000a900473ffffffffffffffffffffffffffffffffffffffff1682828151811061017d5761017c6106a3565b5b602002602001019073ffffffffffffffffffffffffffffffffffffffff16908173ffffffffffffffffffffffffffffffffffffffff1681525050808060010191505061012d565b508091505090565b60006020528060005260406000206000915054906101000a900473ffffffffffffffffffffffffffffffffffffffff1681565b600083838360405161021090610304565b61021c93929190610751565b604051809103906000f080158015610238573d6000803e3d6000fd5b50905080600080600154815260200190815260200160002060006101000a81548173ffffffffffffffffffffffffffffffffffffffff021916908373ffffffffffffffffffffffffffffffffffffffff1602179055508073ffffffffffffffffffffffffffffffffffffffff167fadf714f13c56d92f0a326849d8b2784b5efd263d8790b7bb871e8f8ff76928c18585856040516102d893929190610751565b60405180910390a2600160008154809291906102f3906107be565b919050555050505050565b60015481565b6155088061080783390190565b600081519050919050565b600082825260208201905092915050565b6000819050602082019050919050565b600073ffffffffffffffffffffffffffffffffffffffff82169050919050565b60006103688261033d565b9050919050565b6103788161035d565b82525050565b600061038a838361036f565b60208301905092915050565b6000602082019050919050565b60006103ae82610311565b6103b8818561031c565b93506103c38361032d565b8060005b838110156103f45781516103db888261037e565b97506103e683610396565b9250506001810190506103c7565b5085935050505092915050565b6000602082019050818103600083015261041b81846103a3565b905092915050565b6000604051905090565b600080fd5b600080fd5b6000819050919050565b61044a81610437565b811461045557600080fd5b50565b60008135905061046781610441565b92915050565b6000602082840312156104835761048261042d565b5b600061049184828501610458565b91505092915050565b6104a38161035d565b82525050565b60006020820190506104be600083018461049a565b92915050565b600080fd5b600080fd5b6000601f19601f8301169050919050565b7f4e487b7100000000000000000000000000000000000000000000000000000000600052604160045260246000fd5b610517826104ce565b810181811067ffffffffffffffff82111715610536576105356104df565b5b80604052505050565b6000610549610423565b9050610555828261050e565b919050565b600067ffffffffffffffff821115610575576105746104df565b5b61057e826104ce565b9050602081019050919050565b82818337600083830152505050565b60006105ad6105a88461055a565b61053f565b9050828152602081018484840111156105c9576105c86104c9565b5b6105d484828561058b565b509392505050565b600082601f8301126105f1576105f06104c4565b5b813561060184826020860161059a565b91505092915050565b6000806000606084860312156106235761062261042d565b5b600084013567ffffffffffffffff81111561064157610640610432565b5b61064d868287016105dc565b935050602061065e86828701610458565b925050604061066f86828701610458565b9150509250925092565b61068281610437565b82525050565b600060208201905061069d6000830184610679565b92915050565b7f4e487b7100000000000000000000000000000000000000000000000000000000600052603260045260246000fd5b600081519050919050565b600082825260208201905092915050565b60005b8381101561070c5780820151818401526020810190506106f1565b60008484015250505050565b6000610723826106d2565b61072d81856106dd565b935061073d8185602086016106ee565b610746816104ce565b840191505092915050565b6000606082019050818103600083015261076b8186610718565b905061077a6020830185610679565b6107876040830184610679565b949350505050565b7f4e487b7100000000000000000000000000000000000000000000000000000000600052601160045260246000fd5b60006107c982610437565b91507fffffffffffffffffffffffffffffffffffffffffffffffffffffffffffffffff82036107fb576107fa61078f565b5b60018201905091905056fe608060405234801561001057600080fd5b50604051615508380380615508833981810160405281019061003291906103ca565b33600073ffffffffffffffffffffffffffffffffffffffff168173ffffffffffffffffffffffffffffffffffffffff16036100a55760006040517f1e4fbdf700000000000000000000000000000000000000000000000000000000815260040161009c919061047a565b60405180910390fd5b6100b48161014e60201b60201c565b5082600190816100c491906106ac565b5081600281905550828282306040516100dc90610212565b6100e99493929190610823565b604051809103906000f080158015610105573d6000803e3d6000fd5b50600360016101000a81548173ffffffffffffffffffffffffffffffffffffffff021916908373ffffffffffffffffffffffffffffffffffffffff160217905550505050610882565b60008060009054906101000a900473ffffffffffffffffffffffffffffffffffffffff169050816000806101000a81548173ffffffffffffffffffffffffffffffffffffffff021916908373ffffffffffffffffffffffffffffffffffffffff1602179055508173ffffffffffffffffffffffffffffffffffffffff168173ffffffffffffffffffffffffffffffffffffffff167f8be0079c531659141344cd1fd0a4f28419497f9722a3daafe3b4186f6b6457e060405160405180910390a35050565b6138e280611c2683390190565b6000604051905090565b600080fd5b600080fd5b600080fd5b600080fd5b6000601f19601f8301169050919050565b7f4e487b7100000000000000000000000000000000000000000000000000000000600052604160045260246000fd5b6102868261023d565b810181811067ffffffffffffffff821117156102a5576102a461024e565b5b80604052505050565b60006102b861021f565b90506102c4828261027d565b919050565b600067ffffffffffffffff8211156102e4576102e361024e565b5b6102ed8261023d565b9050602081019050919050565b60005b838110156103185780820151818401526020810190506102fd565b60008484015250505050565b6000610337610332846102c9565b6102ae565b90508281526020810184848401111561035357610352610238565b5b61035e8482856102fa565b509392505050565b600082601f83011261037b5761037a610233565b5b815161038b848260208601610324565b91505092915050565b6000819050919050565b6103a781610394565b81146103b257600080fd5b50565b6000815190506103c48161039e565b92915050565b6000806000606084860312156103e3576103e2610229565b5b600084015167ffffffffffffffff8111156104015761040061022e565b5b61040d86828701610366565b935050602061041e868287016103b5565b925050604061042f868287016103b5565b9150509250925092565b600073ffffffffffffffffffffffffffffffffffffffff82169050919050565b600061046482610439565b9050919050565b61047481610459565b82525050565b600060208201905061048f600083018461046b565b92915050565b600081519050919050565b7f4e487b7100000000000000000000000000000000000000000000000000000000600052602260045260246000fd5b600060028204905060018216806104e757607f821691505b6020821081036104fa576104f96104a0565b5b50919050565b60008190508160005260206000209050919050565b60006020601f8301049050919050565b600082821b905092915050565b6000600883026105627fffffffffffffffffffffffffffffffffffffffffffffffffffffffffffffffff82610525565b61056c8683610525565b95508019841693508086168417925050509392505050565b6000819050919050565b60006105a96105a461059f84610394565b610584565b610394565b9050919050565b6000819050919050565b6105c38361058e565b6105d76105cf826105b0565b848454610532565b825550505050565b600090565b6105ec6105df565b6105f78184846105ba565b505050565b5b8181101561061b576106106000826105e4565b6001810190506105fd565b5050565b601f8211156106605761063181610500565b61063a84610515565b81016020851015610649578190505b61065d61065585610515565b8301826105fc565b50505b505050565b600082821c905092915050565b600061068360001984600802610665565b1980831691505092915050565b600061069c8383610672565b9150826002028217905092915050565b6106b582610495565b67ffffffffffffffff8111156106ce576106cd61024e565b5b6106d882546104cf565b6106e382828561061f565b600060209050601f8311600181146107165760008415610704578287015190505b61070e8582610690565b865550610776565b601f19841661072486610500565b60005b8281101561074c57848901518255600182019150602085019450602081019050610727565b868310156107695784890151610765601f891682610672565b8355505b6001600288020188555050505b505050505050565b600082825260208201905092915050565b600061079a82610495565b6107a4818561077e565b93506107b48185602086016102fa565b6107bd8161023d565b840191505092915050565b7f42494c4554000000000000000000000000000000000000000000000000000000600082015250565b60006107fe60058361077e565b9150610809826107c8565b602082019050919050565b61081d81610394565b82525050565b600060a082019050818103600083015261083d818761078f565b90508181036020830152610850816107f1565b905061085f6040830186610814565b61086c6060830185610814565b610879608083018461046b565b95945050505050565b611395806108916000396000f3fe6080604052600436106100c65760003560e01c80638da5cb5b1161007f578063b3a8ba5111610059578063b3a8ba511461022e578063bbc5c13014610259578063d79d495814610270578063f2fde38b1461029b576100cd565b80638da5cb5b146101d0578063a4b7717c146101fb578063a7c58e8114610224576100cd565b8063150b7a02146100d25780631a812e431461010f5780633856432c1461013a5780633ccfd60b14610165578063715018a61461017c5780638d80f69414610193576100cd565b366100cd57005b600080fd5b3480156100de57600080fd5b506100f960048036038101906100f49190610c67565b6102c4565b6040516101069190610d2a565b60405180910390f35b34801561011b57600080fd5b506101246102d9565b6040516101319190610d60565b60405180910390f35b34801561014657600080fd5b5061014f6102ec565b60405161015c9190610d8a565b60405180910390f35b34801561017157600080fd5b5061017a6102f2565b005b34801561018857600080fd5b5061019161046e565b005b34801561019f57600080fd5b506101ba60048036038101906101b59190610da5565b610482565b6040516101c79190610d8a565b60405180910390f35b3480156101dc57600080fd5b506101e561049a565b6040516101f29190610de1565b60405180910390f35b34801561020757600080fd5b50610222600480360381019061021d9190610dfc565b6104c3565b005b61022c61074b565b005b34801561023a57600080fd5b506102436108b2565b6040516102509190610e88565b60405180910390f35b34801561026557600080fd5b5061026e6108d8565b005b34801561027c57600080fd5b506102856108fd565b6040516102929190610f33565b60405180910390f35b3480156102a757600080fd5b506102c260048036038101906102bd9190610da5565b61098b565b005b600063150b7a0260e01b905095945050505050565b600360009054906101000a900460ff1681565b60025481565b6000600460003373ffffffffffffffffffffffffffffffffffffffff1673ffffffffffffffffffffffffffffffffffffffff16815260200190815260200160002054905060008111610379576040517f08c379a000000000000000000000000000000000000000000000000000000000815260040161037090610fa1565b60405180910390fd5b6000600460003373ffffffffffffffffffffffffffffffffffffffff1673ffffffffffffffffffffffffffffffffffffffff1681526020019081526020016000208190555060003373ffffffffffffffffffffffffffffffffffffffff16826040516103e490610ff2565b60006040518083038185875af1925050503d8060008114610421576040519150601f19603f3d011682016040523d82523d6000602084013e610426565b606091505b505090508061046a576040517f08c379a000000000000000000000000000000000000000000000000000000000815260040161046190611053565b60405180910390fd5b5050565b610476610a11565b6104806000610a98565b565b60046020528060005260406000206000915090505481565b60008060009054906101000a900473ffffffffffffffffffffffffffffffffffffffff16905090565b600360009054906101000a900460ff16610512576040517f08c379a0000000000000000000000000000000000000000000000000000000008152600401610509906110bf565b60405180910390fd5b3373ffffffffffffffffffffffffffffffffffffffff16600360019054906101000a900473ffffffffffffffffffffffffffffffffffffffff1673ffffffffffffffffffffffffffffffffffffffff16636352211e836040518263ffffffff1660e01b81526004016105849190610d8a565b602060405180830381865afa1580156105a1573d6000803e3d6000fd5b505050506040513d601f19601f820116820180604052508101906105c591906110f4565b73ffffffffffffffffffffffffffffffffffffffff161461061b576040517f08c379a00000000000000000000000000000000000000000000000000000000081526004016106129061116d565b60405180910390fd5b600360019054906101000a900473ffffffffffffffffffffffffffffffffffffffff1673ffffffffffffffffffffffffffffffffffffffff1663cfc531683330846040518463ffffffff1660e01b815260040161067a9392919061118d565b600060405180830381600087803b15801561069457600080fd5b505af11580156106a8573d6000803e3d6000fd5b50505050600254600460003373ffffffffffffffffffffffffffffffffffffffff1673ffffffffffffffffffffffffffffffffffffffff16815260200190815260200160002060008282546106fd91906111f3565b92505081905550803373ffffffffffffffffffffffffffffffffffffffff167fc752d2895a48e3ce612a0b5ffb7807117b51ebc4f950e6bae1812725c4f5c66160405160405180910390a350565b600360009054906101000a900460ff161561079b576040517f08c379a000000000000000000000000000000000000000000000000000000000815260040161079290611273565b60405180910390fd5b60025434146107df576040517f08c379a00000000000000000000000000000000000000000000000000000000081526004016107d6906112df565b60405180910390fd5b600360019054906101000a900473ffffffffffffffffffffffffffffffffffffffff1673ffffffffffffffffffffffffffffffffffffffff16634d50e21e34336040518363ffffffff1660e01b815260040161083b9190610de1565b6000604051808303818588803b15801561085457600080fd5b505af1158015610868573d6000803e3d6000fd5b50505050503373ffffffffffffffffffffffffffffffffffffffff167f4e7e9f1ba7294ce134098dfe53fb6db3a9754b0c5e3f3cc0c029ba7d22086fa160405160405180910390a2565b600360019054906101000a900473ffffffffffffffffffffffffffffffffffffffff1681565b6108e0610a11565b6001600360006101000a81548160ff021916908315150217905550565b6001805461090a9061132e565b80601f01602080910402602001604051908101604052809291908181526020018280546109369061132e565b80156109835780601f1061095857610100808354040283529160200191610983565b820191906000526020600020905b81548152906001019060200180831161096657829003601f168201915b505050505081565b610993610a11565b600073ffffffffffffffffffffffffffffffffffffffff168173ffffffffffffffffffffffffffffffffffffffff1603610a055760006040517f1e4fbdf70000000000000000000000000000000000000000000000000000000081526004016109fc9190610de1565b60405180910390fd5b610a0e81610a98565b50565b610a19610b5c565b73ffffffffffffffffffffffffffffffffffffffff16610a3761049a565b73ffffffffffffffffffffffffffffffffffffffff1614610a9657610a5a610b5c565b6040517f118cdaa7000000000000000000000000000000000000000000000000000000008152600401610a8d9190610de1565b60405180910390fd5b565b60008060009054906101000a900473ffffffffffffffffffffffffffffffffffffffff169050816000806101000a81548173ffffffffffffffffffffffffffffffffffffffff021916908373ffffffffffffffffffffffffffffffffffffffff1602179055508173ffffffffffffffffffffffffffffffffffffffff168173ffffffffffffffffffffffffffffffffffffffff167f8be0079c531659141344cd1fd0a4f28419497f9722a3daafe3b4186f6b6457e060405160405180910390a35050565b600033905090565b600080fd5b600080fd5b600073ffffffffffffffffffffffffffffffffffffffff82169050919050565b6000610b9982610b6e565b9050919050565b610ba981610b8e565b8114610bb457600080fd5b50565b600081359050610bc681610ba0565b92915050565b6000819050919050565b610bdf81610bcc565b8114610bea57600080fd5b50565b600081359050610bfc81610bd6565b92915050565b600080fd5b600080fd5b600080fd5b60008083601f840112610c2757610c26610c02565b5b8235905067ffffffffffffffff811115610c4457610c43610c07565b5b602083019150836001820283011115610c6057610c5f610c0c565b5b9250929050565b600080600080600060808688031215610c8357610c82610b64565b5b6000610c9188828901610bb7565b9550506020610ca288828901610bb7565b9450506040610cb388828901610bed565b935050606086013567ffffffffffffffff811115610cd457610cd3610b69565b5b610ce088828901610c11565b92509250509295509295909350565b60007fffffffff0000000000000000000000000000000000000000000000000000000082169050919050565b610d2481610cef565b82525050565b6000602082019050610d3f6000830184610d1b565b92915050565b60008115159050919050565b610d5a81610d45565b82525050565b6000602082019050610d756000830184610d51565b92915050565b610d8481610bcc565b82525050565b6000602082019050610d9f6000830184610d7b565b92915050565b600060208284031215610dbb57610dba610b64565b5b6000610dc984828501610bb7565b91505092915050565b610ddb81610b8e565b82525050565b6000602082019050610df66000830184610dd2565b92915050565b600060208284031215610e1257610e11610b64565b5b6000610e2084828501610bed565b91505092915050565b6000819050919050565b6000610e4e610e49610e4484610b6e565b610e29565b610b6e565b9050919050565b6000610e6082610e33565b9050919050565b6000610e7282610e55565b9050919050565b610e8281610e67565b82525050565b6000602082019050610e9d6000830184610e79565b92915050565b600081519050919050565b600082825260208201905092915050565b60005b83811015610edd578082015181840152602081019050610ec2565b60008484015250505050565b6000601f19601f8301169050919050565b6000610f0582610ea3565b610f0f8185610eae565b9350610f1f818560208601610ebf565b610f2881610ee9565b840191505092915050565b60006020820190508181036000830152610f4d8184610efa565b905092915050565b7f4e7520616920666f6e6475726920646520726574726173000000000000000000600082015250565b6000610f8b601783610eae565b9150610f9682610f55565b602082019050919050565b60006020820190508181036000830152610fba81610f7e565b9050919050565b600081905092915050565b50565b6000610fdc600083610fc1565b9150610fe782610fcc565b600082019050919050565b6000610ffd82610fcf565b9150819050919050565b7f5472616e73666572206573756174000000000000000000000000000000000000600082015250565b600061103d600e83610eae565b915061104882611007565b602082019050919050565b6000602082019050818103600083015261106c81611030565b9050919050565b7f4576656e696d656e74756c206e75206573746520616e756c6174000000000000600082015250565b60006110a9601a83610eae565b91506110b482611073565b602082019050919050565b600060208201905081810360008301526110d88161109c565b9050919050565b6000815190506110ee81610ba0565b92915050565b60006020828403121561110a57611109610b64565b5b6000611118848285016110df565b91505092915050565b7f4e752064657469692061636573742062696c6574000000000000000000000000600082015250565b6000611157601483610eae565b915061116282611121565b602082019050919050565b600060208201905081810360008301526111868161114a565b9050919050565b60006060820190506111a26000830186610dd2565b6111af6020830185610dd2565b6111bc6040830184610d7b565b949350505050565b7f4e487b7100000000000000000000000000000000000000000000000000000000600052601160045260246000fd5b60006111fe82610bcc565b915061120983610bcc565b9250828201905080821115611221576112206111c4565b5b92915050565b7f4576656e696d656e74756c206573746520616e756c6174000000000000000000600082015250565b600061125d601783610eae565b915061126882611227565b602082019050919050565b6000602082019050818103600083015261128c81611250565b9050919050565b7f53756d6120455448206772657369746100000000000000000000000000000000600082015250565b60006112c9601083610eae565b91506112d482611293565b602082019050919050565b600060208201905081810360008301526112f8816112bc565b9050919050565b7f4e487b7100000000000000000000000000000000000000000000000000000000600052602260045260246000fd5b6000600282049050600182168061134657607f821691505b602082108103611359576113586112ff565b5b5091905056fea26469706673582212207867e8ab79130d2d38d9d479d595621432c8991645d29ba40b79a5c95ddbab7064736f6c634300081c0033608060405234801561001057600080fd5b506040516138e23803806138e283398181016040528101906100329190610401565b808585816000908161004491906106cb565b50806001908161005491906106cb565b505050600073ffffffffffffffffffffffffffffffffffffffff168173ffffffffffffffffffffffffffffffffffffffff16036100c95760006040517f1e4fbdf70000000000000000000000000000000000000000000000000000000081526004016100c091906107ac565b60405180910390fd5b6100d88161013260201b60201c565b5082600c8190555081600d8190555080600f60006101000a81548173ffffffffffffffffffffffffffffffffffffffff021916908373ffffffffffffffffffffffffffffffffffffffff16021790555050505050506107c7565b6000600b60009054906101000a900473ffffffffffffffffffffffffffffffffffffffff16905081600b60006101000a81548173ffffffffffffffffffffffffffffffffffffffff021916908373ffffffffffffffffffffffffffffffffffffffff1602179055508173ffffffffffffffffffffffffffffffffffffffff168173ffffffffffffffffffffffffffffffffffffffff167f8be0079c531659141344cd1fd0a4f28419497f9722a3daafe3b4186f6b6457e060405160405180910390a35050565b6000604051905090565b600080fd5b600080fd5b600080fd5b600080fd5b6000601f19601f8301169050919050565b7f4e487b7100000000000000000000000000000000000000000000000000000000600052604160045260246000fd5b61025f82610216565b810181811067ffffffffffffffff8211171561027e5761027d610227565b5b80604052505050565b60006102916101f8565b905061029d8282610256565b919050565b600067ffffffffffffffff8211156102bd576102bc610227565b5b6102c682610216565b9050602081019050919050565b60005b838110156102f15780820151818401526020810190506102d6565b60008484015250505050565b600061031061030b846102a2565b610287565b90508281526020810184848401111561032c5761032b610211565b5b6103378482856102d3565b509392505050565b600082601f8301126103545761035361020c565b5b81516103648482602086016102fd565b91505092915050565b6000819050919050565b6103808161036d565b811461038b57600080fd5b50565b60008151905061039d81610377565b92915050565b600073ffffffffffffffffffffffffffffffffffffffff82169050919050565b60006103ce826103a3565b9050919050565b6103de816103c3565b81146103e957600080fd5b50565b6000815190506103fb816103d5565b92915050565b600080600080600060a0868803121561041d5761041c610202565b5b600086015167ffffffffffffffff81111561043b5761043a610207565b5b6104478882890161033f565b955050602086015167ffffffffffffffff81111561046857610467610207565b5b6104748882890161033f565b94505060406104858882890161038e565b93505060606104968882890161038e565b92505060806104a7888289016103ec565b9150509295509295909350565b600081519050919050565b7f4e487b7100000000000000000000000000000000000000000000000000000000600052602260045260246000fd5b6000600282049050600182168061050657607f821691505b602082108103610519576105186104bf565b5b50919050565b60008190508160005260206000209050919050565b60006020601f8301049050919050565b600082821b905092915050565b6000600883026105817fffffffffffffffffffffffffffffffffffffffffffffffffffffffffffffffff82610544565b61058b8683610544565b95508019841693508086168417925050509392505050565b6000819050919050565b60006105c86105c36105be8461036d565b6105a3565b61036d565b9050919050565b6000819050919050565b6105e2836105ad565b6105f66105ee826105cf565b848454610551565b825550505050565b600090565b61060b6105fe565b6106168184846105d9565b505050565b5b8181101561063a5761062f600082610603565b60018101905061061c565b5050565b601f82111561067f576106508161051f565b61065984610534565b81016020851015610668578190505b61067c61067485610534565b83018261061b565b50505b505050565b600082821c905092915050565b60006106a260001984600802610684565b1980831691505092915050565b60006106bb8383610691565b9150826002028217905092915050565b6106d4826104b4565b67ffffffffffffffff8111156106ed576106ec610227565b5b6106f782546104ee565b61070282828561063e565b600060209050601f8311600181146107355760008415610723578287015190505b61072d85826106af565b865550610795565b601f1984166107438661051f565b60005b8281101561076b57848901518255600182019150602085019450602081019050610746565b868310156107885784890151610784601f891682610691565b8355505b6001600288020188555050505b505050505050565b6107a6816103c3565b82525050565b60006020820190506107c1600083018461079d565b92915050565b61310c806107d66000396000f3fe6080604052600436106101665760003560e01c80636352211e116100d1578063b88d4fde1161008a578063d5ac1e5c11610064578063d5ac1e5c14610541578063e274fd241461056c578063e985e9c514610597578063f2fde38b146105d457610166565b8063b88d4fde146104b2578063c87b56dd146104db578063cfc531681461051857610166565b80636352211e146103a257806370a08231146103df578063715018a61461041c5780638da5cb5b1461043357806395d89b411461045e578063a22cb4651461048957610166565b806323b872dd1161012357806323b872dd1461028f5780632f745c59146102b85780633856432c146102f557806342842e0e146103205780634d50e21e146103495780634f6ccce71461036557610166565b806301ffc9a71461016b57806306fdde03146101a8578063081812fc146101d3578063095ea7b31461021057806318160ddd14610239578063236818a614610264575b600080fd5b34801561017757600080fd5b50610192600480360381019061018d919061266b565b6105fd565b60405161019f91906126b3565b60405180910390f35b3480156101b457600080fd5b506101bd61060f565b6040516101ca919061275e565b60405180910390f35b3480156101df57600080fd5b506101fa60048036038101906101f591906127b6565b6106a1565b6040516102079190612824565b60405180910390f35b34801561021c57600080fd5b506102376004803603810190610232919061286b565b6106bd565b005b34801561024557600080fd5b5061024e6106d3565b60405161025b91906128ba565b60405180910390f35b34801561027057600080fd5b506102796106e0565b60405161028691906128ba565b60405180910390f35b34801561029b57600080fd5b506102b660048036038101906102b191906128d5565b6106e6565b005b3480156102c457600080fd5b506102df60048036038101906102da919061286b565b6107e8565b6040516102ec91906128ba565b60405180910390f35b34801561030157600080fd5b5061030a610891565b60405161031791906128ba565b60405180910390f35b34801561032c57600080fd5b50610347600480360381019061034291906128d5565b610897565b005b610363600480360381019061035e9190612928565b6108b7565b005b34801561037157600080fd5b5061038c600480360381019061038791906127b6565b610a87565b60405161039991906128ba565b60405180910390f35b3480156103ae57600080fd5b506103c960048036038101906103c491906127b6565b610afd565b6040516103d69190612824565b60405180910390f35b3480156103eb57600080fd5b5061040660048036038101906104019190612928565b610b0f565b60405161041391906128ba565b60405180910390f35b34801561042857600080fd5b50610431610bc9565b005b34801561043f57600080fd5b50610448610bdd565b6040516104559190612824565b60405180910390f35b34801561046a57600080fd5b50610473610c07565b604051610480919061275e565b60405180910390f35b34801561049557600080fd5b506104b060048036038101906104ab9190612981565b610c99565b005b3480156104be57600080fd5b506104d960048036038101906104d49190612af6565b610caf565b005b3480156104e757600080fd5b5061050260048036038101906104fd91906127b6565b610cd4565b60405161050f919061275e565b60405180910390f35b34801561052457600080fd5b5061053f600480360381019061053a91906128d5565b610ce6565b005b34801561054d57600080fd5b50610556610d86565b60405161056391906128ba565b60405180910390f35b34801561057857600080fd5b50610581610d8c565b60405161058e9190612824565b60405180910390f35b3480156105a357600080fd5b506105be60048036038101906105b99190612b79565b610db2565b6040516105cb91906126b3565b60405180910390f35b3480156105e057600080fd5b506105fb60048036038101906105f69190612928565b610e46565b005b600061060882610ecc565b9050919050565b60606000805461061e90612be8565b80601f016020809104026020016040519081016040528092919081815260200182805461064a90612be8565b80156106975780601f1061066c57610100808354040283529160200191610697565b820191906000526020600020905b81548152906001019060200180831161067a57829003601f168201915b5050505050905090565b60006106ac82610f46565b506106b682610fce565b9050919050565b6106cf82826106ca61100b565b611013565b5050565b6000600980549050905090565b600e5481565b600073ffffffffffffffffffffffffffffffffffffffff168273ffffffffffffffffffffffffffffffffffffffff16036107585760006040517f64a0ae9200000000000000000000000000000000000000000000000000000000815260040161074f9190612824565b60405180910390fd5b600061076c838361076761100b565b611025565b90508373ffffffffffffffffffffffffffffffffffffffff168173ffffffffffffffffffffffffffffffffffffffff16146107e2578382826040517f64283d7b0000000000000000000000000000000000000000000000000000000081526004016107d993929190612c19565b60405180910390fd5b50505050565b60006107f383610b0f565b82106108385782826040517fa57d13dc00000000000000000000000000000000000000000000000000000000815260040161082f929190612c50565b60405180910390fd5b600760008473ffffffffffffffffffffffffffffffffffffffff1673ffffffffffffffffffffffffffffffffffffffff168152602001908152602001600020600083815260200190815260200160002054905092915050565b600c5481565b6108b283838360405180602001604052806000815250610caf565b505050565b600c5434146108fb576040517f08c379a00000000000000000000000000000000000000000000000000000000081526004016108f290612cc5565b60405180910390fd5b600d54600e5410610941576040517f08c379a000000000000000000000000000000000000000000000000000000000815260040161093890612d31565b60405180910390fd5b60006001600e546109529190612d80565b905061095e828261103b565b808273ffffffffffffffffffffffffffffffffffffffff167fb543c60b60401bfae555081027cadafe6c90d8d087d74b8f6c07173692a2c83960405160405180910390a36000600f60009054906101000a900473ffffffffffffffffffffffffffffffffffffffff1673ffffffffffffffffffffffffffffffffffffffff16346040516109ea90612de5565b60006040518083038185875af1925050503d8060008114610a27576040519150601f19603f3d011682016040523d82523d6000602084013e610a2c565b606091505b5050905080610a70576040517f08c379a0000000000000000000000000000000000000000000000000000000008152600401610a6790612e46565b60405180910390fd5b600e60008154809291906001019190505550505050565b6000610a916106d3565b8210610ad7576000826040517fa57d13dc000000000000000000000000000000000000000000000000000000008152600401610ace929190612c50565b60405180910390fd5b60098281548110610aeb57610aea612e66565b5b90600052602060002001549050919050565b6000610b0882610f46565b9050919050565b60008073ffffffffffffffffffffffffffffffffffffffff168273ffffffffffffffffffffffffffffffffffffffff1603610b825760006040517f89c62b64000000000000000000000000000000000000000000000000000000008152600401610b799190612824565b60405180910390fd5b600360008373ffffffffffffffffffffffffffffffffffffffff1673ffffffffffffffffffffffffffffffffffffffff168152602001908152602001600020549050919050565b610bd1611059565b610bdb60006110e0565b565b6000600b60009054906101000a900473ffffffffffffffffffffffffffffffffffffffff16905090565b606060018054610c1690612be8565b80601f0160208091040260200160405190810160405280929190818152602001828054610c4290612be8565b8015610c8f5780601f10610c6457610100808354040283529160200191610c8f565b820191906000526020600020905b815481529060010190602001808311610c7257829003601f168201915b5050505050905090565b610cab610ca461100b565b83836111a6565b5050565b610cba8484846106e6565b610cce610cc561100b565b85858585611315565b50505050565b6060610cdf826114c6565b9050919050565b600f60009054906101000a900473ffffffffffffffffffffffffffffffffffffffff1673ffffffffffffffffffffffffffffffffffffffff163373ffffffffffffffffffffffffffffffffffffffff1614610d76576040517f08c379a0000000000000000000000000000000000000000000000000000000008152600401610d6d90612ee1565b60405180910390fd5b610d818383836115d9565b505050565b600d5481565b600f60009054906101000a900473ffffffffffffffffffffffffffffffffffffffff1681565b6000600560008473ffffffffffffffffffffffffffffffffffffffff1673ffffffffffffffffffffffffffffffffffffffff16815260200190815260200160002060008373ffffffffffffffffffffffffffffffffffffffff1673ffffffffffffffffffffffffffffffffffffffff16815260200190815260200160002060009054906101000a900460ff16905092915050565b610e4e611059565b600073ffffffffffffffffffffffffffffffffffffffff168173ffffffffffffffffffffffffffffffffffffffff1603610ec05760006040517f1e4fbdf7000000000000000000000000000000000000000000000000000000008152600401610eb79190612824565b60405180910390fd5b610ec9816110e0565b50565b60007f780e9d63000000000000000000000000000000000000000000000000000000007bffffffffffffffffffffffffffffffffffffffffffffffffffffffff1916827bffffffffffffffffffffffffffffffffffffffffffffffffffffffff19161480610f3f5750610f3e82611746565b5b9050919050565b600080610f52836117a7565b9050600073ffffffffffffffffffffffffffffffffffffffff168173ffffffffffffffffffffffffffffffffffffffff1603610fc557826040517f7e273289000000000000000000000000000000000000000000000000000000008152600401610fbc91906128ba565b60405180910390fd5b80915050919050565b60006004600083815260200190815260200160002060009054906101000a900473ffffffffffffffffffffffffffffffffffffffff169050919050565b600033905090565b61102083838360016117e4565b505050565b60006110328484846119a9565b90509392505050565b611055828260405180602001604052806000815250611ac6565b5050565b61106161100b565b73ffffffffffffffffffffffffffffffffffffffff1661107f610bdd565b73ffffffffffffffffffffffffffffffffffffffff16146110de576110a261100b565b6040517f118cdaa70000000000000000000000000000000000000000000000000000000081526004016110d59190612824565b60405180910390fd5b565b6000600b60009054906101000a900473ffffffffffffffffffffffffffffffffffffffff16905081600b60006101000a81548173ffffffffffffffffffffffffffffffffffffffff021916908373ffffffffffffffffffffffffffffffffffffffff1602179055508173ffffffffffffffffffffffffffffffffffffffff168173ffffffffffffffffffffffffffffffffffffffff167f8be0079c531659141344cd1fd0a4f28419497f9722a3daafe3b4186f6b6457e060405160405180910390a35050565b600073ffffffffffffffffffffffffffffffffffffffff168273ffffffffffffffffffffffffffffffffffffffff160361121757816040517f5b08ba1800000000000000000000000000000000000000000000000000000000815260040161120e9190612824565b60405180910390fd5b80600560008573ffffffffffffffffffffffffffffffffffffffff1673ffffffffffffffffffffffffffffffffffffffff16815260200190815260200160002060008473ffffffffffffffffffffffffffffffffffffffff1673ffffffffffffffffffffffffffffffffffffffff16815260200190815260200160002060006101000a81548160ff0219169083151502179055508173ffffffffffffffffffffffffffffffffffffffff168373ffffffffffffffffffffffffffffffffffffffff167f17307eab39ab6107e8899845ad3d59bd9653f200f220920489ca2b5937696c318360405161130891906126b3565b60405180910390a3505050565b60008373ffffffffffffffffffffffffffffffffffffffff163b11156114bf578273ffffffffffffffffffffffffffffffffffffffff1663150b7a02868685856040518563ffffffff1660e01b81526004016113749493929190612f56565b6020604051808303816000875af19250505080156113b057506040513d601f19601f820116820180604052508101906113ad9190612fb7565b60015b611434573d80600081146113e0576040519150601f19603f3d011682016040523d82523d6000602084013e6113e5565b606091505b50600081510361142c57836040517f64a0ae920000000000000000000000000000000000000000000000000000000081526004016114239190612824565b60405180910390fd5b805181602001fd5b63150b7a0260e01b7bffffffffffffffffffffffffffffffffffffffffffffffffffffffff1916817bffffffffffffffffffffffffffffffffffffffffffffffffffffffff1916146114bd57836040517f64a0ae920000000000000000000000000000000000000000000000000000000081526004016114b49190612824565b60405180910390fd5b505b5050505050565b60606114d182610f46565b5060006006600084815260200190815260200160002080546114f290612be8565b80601f016020809104026020016040519081016040528092919081815260200182805461151e90612be8565b801561156b5780601f106115405761010080835404028352916020019161156b565b820191906000526020600020905b81548152906001019060200180831161154e57829003601f168201915b50505050509050600061157c611aea565b905060008151036115915781925050506115d4565b6000825111156115c65780826040516020016115ae929190613020565b604051602081830303815290604052925050506115d4565b6115cf84611b01565b925050505b919050565b600073ffffffffffffffffffffffffffffffffffffffff168273ffffffffffffffffffffffffffffffffffffffff160361164b5760006040517f64a0ae920000000000000000000000000000000000000000000000000000000081526004016116429190612824565b60405180910390fd5b600061165983836000611025565b9050600073ffffffffffffffffffffffffffffffffffffffff168173ffffffffffffffffffffffffffffffffffffffff16036116cc57816040517f7e2732890000000000000000000000000000000000000000000000000000000081526004016116c391906128ba565b60405180910390fd5b8373ffffffffffffffffffffffffffffffffffffffff168173ffffffffffffffffffffffffffffffffffffffff1614611740578382826040517f64283d7b00000000000000000000000000000000000000000000000000000000815260040161173793929190612c19565b60405180910390fd5b50505050565b6000634906490660e01b7bffffffffffffffffffffffffffffffffffffffffffffffffffffffff1916827bffffffffffffffffffffffffffffffffffffffffffffffffffffffff191614806117a0575061179f82611b6a565b5b9050919050565b60006002600083815260200190815260200160002060009054906101000a900473ffffffffffffffffffffffffffffffffffffffff169050919050565b808061181d5750600073ffffffffffffffffffffffffffffffffffffffff168273ffffffffffffffffffffffffffffffffffffffff1614155b1561195157600061182d84610f46565b9050600073ffffffffffffffffffffffffffffffffffffffff168373ffffffffffffffffffffffffffffffffffffffff161415801561189857508273ffffffffffffffffffffffffffffffffffffffff168173ffffffffffffffffffffffffffffffffffffffff1614155b80156118ab57506118a98184610db2565b155b156118ed57826040517fa9fbf51f0000000000000000000000000000000000000000000000000000000081526004016118e49190612824565b60405180910390fd5b811561194f57838573ffffffffffffffffffffffffffffffffffffffff168273ffffffffffffffffffffffffffffffffffffffff167f8c5be1e5ebec7d5bd14f71427d1e84f3dd0314c0f7b2291e5b200ac8c7c3b92560405160405180910390a45b505b836004600085815260200190815260200160002060006101000a81548173ffffffffffffffffffffffffffffffffffffffff021916908373ffffffffffffffffffffffffffffffffffffffff16021790555050505050565b6000806119b7858585611c4c565b9050600073ffffffffffffffffffffffffffffffffffffffff168173ffffffffffffffffffffffffffffffffffffffff16036119fb576119f684611e66565b611a3a565b8473ffffffffffffffffffffffffffffffffffffffff168173ffffffffffffffffffffffffffffffffffffffff1614611a3957611a388185611eaf565b5b5b600073ffffffffffffffffffffffffffffffffffffffff168573ffffffffffffffffffffffffffffffffffffffff1603611a7c57611a7784611f9a565b611abb565b8473ffffffffffffffffffffffffffffffffffffffff168173ffffffffffffffffffffffffffffffffffffffff1614611aba57611ab9858561206b565b5b5b809150509392505050565b611ad083836120f6565b611ae5611adb61100b565b6000858585611315565b505050565b606060405180602001604052806000815250905090565b6060611b0c82610f46565b506000611b17611aea565b90506000815111611b375760405180602001604052806000815250611b62565b80611b41846121ef565b604051602001611b52929190613020565b6040516020818303038152906040525b915050919050565b60007f80ac58cd000000000000000000000000000000000000000000000000000000007bffffffffffffffffffffffffffffffffffffffffffffffffffffffff1916827bffffffffffffffffffffffffffffffffffffffffffffffffffffffff19161480611c3557507f5b5e139f000000000000000000000000000000000000000000000000000000007bffffffffffffffffffffffffffffffffffffffffffffffffffffffff1916827bffffffffffffffffffffffffffffffffffffffffffffffffffffffff1916145b80611c455750611c44826122bd565b5b9050919050565b600080611c58846117a7565b9050600073ffffffffffffffffffffffffffffffffffffffff168373ffffffffffffffffffffffffffffffffffffffff1614611c9a57611c99818486612327565b5b600073ffffffffffffffffffffffffffffffffffffffff168173ffffffffffffffffffffffffffffffffffffffff1614611d2b57611cdc6000856000806117e4565b6001600360008373ffffffffffffffffffffffffffffffffffffffff1673ffffffffffffffffffffffffffffffffffffffff168152602001908152602001600020600082825403925050819055505b600073ffffffffffffffffffffffffffffffffffffffff168573ffffffffffffffffffffffffffffffffffffffff1614611dae576001600360008773ffffffffffffffffffffffffffffffffffffffff1673ffffffffffffffffffffffffffffffffffffffff168152602001908152602001600020600082825401925050819055505b846002600086815260200190815260200160002060006101000a81548173ffffffffffffffffffffffffffffffffffffffff021916908373ffffffffffffffffffffffffffffffffffffffff160217905550838573ffffffffffffffffffffffffffffffffffffffff168273ffffffffffffffffffffffffffffffffffffffff167fddf252ad1be2c89b69c2b068fc378daa952ba7f163c4a11628f55a4df523b3ef60405160405180910390a4809150509392505050565b600980549050600a600083815260200190815260200160002081905550600981908060018154018082558091505060019003906000526020600020016000909190919091505550565b6000611eba83610b0f565b90506000600860008481526020019081526020016000205490506000600760008673ffffffffffffffffffffffffffffffffffffffff1673ffffffffffffffffffffffffffffffffffffffff1681526020019081526020016000209050828214611f665760008160008581526020019081526020016000205490508082600085815260200190815260200160002081905550826008600083815260200190815260200160002081905550505b6008600085815260200190815260200160002060009055806000848152602001908152602001600020600090555050505050565b60006001600980549050611fae9190613044565b90506000600a6000848152602001908152602001600020549050600060098381548110611fde57611fdd612e66565b5b90600052602060002001549050806009838154811061200057611fff612e66565b5b906000526020600020018190555081600a600083815260200190815260200160002081905550600a600085815260200190815260200160002060009055600980548061204f5761204e613078565b5b6001900381819060005260206000200160009055905550505050565b6000600161207884610b0f565b6120829190613044565b905081600760008573ffffffffffffffffffffffffffffffffffffffff1673ffffffffffffffffffffffffffffffffffffffff168152602001908152602001600020600083815260200190815260200160002081905550806008600084815260200190815260200160002081905550505050565b600073ffffffffffffffffffffffffffffffffffffffff168273ffffffffffffffffffffffffffffffffffffffff16036121685760006040517f64a0ae9200000000000000000000000000000000000000000000000000000000815260040161215f9190612824565b60405180910390fd5b600061217683836000611025565b9050600073ffffffffffffffffffffffffffffffffffffffff168173ffffffffffffffffffffffffffffffffffffffff16146121ea5760006040517f73c6ac6e0000000000000000000000000000000000000000000000000000000081526004016121e19190612824565b60405180910390fd5b505050565b6060600060016121fe846123eb565b01905060008167ffffffffffffffff81111561221d5761221c6129cb565b5b6040519080825280601f01601f19166020018201604052801561224f5781602001600182028036833780820191505090505b509050600082602001820190505b6001156122b2578080600190039150507f3031323334353637383961626364656600000000000000000000000000000000600a86061a8153600a85816122a6576122a56130a7565b5b0494506000850361225d575b819350505050919050565b60007f01ffc9a7000000000000000000000000000000000000000000000000000000007bffffffffffffffffffffffffffffffffffffffffffffffffffffffff1916827bffffffffffffffffffffffffffffffffffffffffffffffffffffffff1916149050919050565b61233283838361253e565b6123e657600073ffffffffffffffffffffffffffffffffffffffff168373ffffffffffffffffffffffffffffffffffffffff16036123a757806040517f7e27328900000000000000000000000000000000000000000000000000000000815260040161239e91906128ba565b60405180910390fd5b81816040517f177e802f0000000000000000000000000000000000000000000000000000000081526004016123dd929190612c50565b60405180910390fd5b505050565b600080600090507a184f03e93ff9f4daa797ed6e38ed64bf6a1f0100000000000000008310612449577a184f03e93ff9f4daa797ed6e38ed64bf6a1f010000000000000000838161243f5761243e6130a7565b5b0492506040810190505b6d04ee2d6d415b85acef81000000008310612486576d04ee2d6d415b85acef8100000000838161247c5761247b6130a7565b5b0492506020810190505b662386f26fc1000083106124b557662386f26fc1000083816124ab576124aa6130a7565b5b0492506010810190505b6305f5e10083106124de576305f5e10083816124d4576124d36130a7565b5b0492506008810190505b61271083106125035761271083816124f9576124f86130a7565b5b0492506004810190505b60648310612526576064838161251c5761251b6130a7565b5b0492506002810190505b600a8310612535576001810190505b80915050919050565b60008073ffffffffffffffffffffffffffffffffffffffff168373ffffffffffffffffffffffffffffffffffffffff16141580156125f657508273ffffffffffffffffffffffffffffffffffffffff168473ffffffffffffffffffffffffffffffffffffffff1614806125b757506125b68484610db2565b5b806125f557508273ffffffffffffffffffffffffffffffffffffffff166125dd83610fce565b73ffffffffffffffffffffffffffffffffffffffff16145b5b90509392505050565b6000604051905090565b600080fd5b600080fd5b60007fffffffff0000000000000000000000000000000000000000000000000000000082169050919050565b61264881612613565b811461265357600080fd5b50565b6000813590506126658161263f565b92915050565b60006020828403121561268157612680612609565b5b600061268f84828501612656565b91505092915050565b60008115159050919050565b6126ad81612698565b82525050565b60006020820190506126c860008301846126a4565b92915050565b600081519050919050565b600082825260208201905092915050565b60005b838110156127085780820151818401526020810190506126ed565b60008484015250505050565b6000601f19601f8301169050919050565b6000612730826126ce565b61273a81856126d9565b935061274a8185602086016126ea565b61275381612714565b840191505092915050565b600060208201905081810360008301526127788184612725565b905092915050565b6000819050919050565b61279381612780565b811461279e57600080fd5b50565b6000813590506127b08161278a565b92915050565b6000602082840312156127cc576127cb612609565b5b60006127da848285016127a1565b91505092915050565b600073ffffffffffffffffffffffffffffffffffffffff82169050919050565b600061280e826127e3565b9050919050565b61281e81612803565b82525050565b60006020820190506128396000830184612815565b92915050565b61284881612803565b811461285357600080fd5b50565b6000813590506128658161283f565b92915050565b6000806040838503121561288257612881612609565b5b600061289085828601612856565b92505060206128a1858286016127a1565b9150509250929050565b6128b481612780565b82525050565b60006020820190506128cf60008301846128ab565b92915050565b6000806000606084860312156128ee576128ed612609565b5b60006128fc86828701612856565b935050602061290d86828701612856565b925050604061291e868287016127a1565b9150509250925092565b60006020828403121561293e5761293d612609565b5b600061294c84828501612856565b91505092915050565b61295e81612698565b811461296957600080fd5b50565b60008135905061297b81612955565b92915050565b6000806040838503121561299857612997612609565b5b60006129a685828601612856565b92505060206129b78582860161296c565b9150509250929050565b600080fd5b600080fd5b7f4e487b7100000000000000000000000000000000000000000000000000000000600052604160045260246000fd5b612a0382612714565b810181811067ffffffffffffffff82111715612a2257612a216129cb565b5b80604052505050565b6000612a356125ff565b9050612a4182826129fa565b919050565b600067ffffffffffffffff821115612a6157612a606129cb565b5b612a6a82612714565b9050602081019050919050565b82818337600083830152505050565b6000612a99612a9484612a46565b612a2b565b905082815260208101848484011115612ab557612ab46129c6565b5b612ac0848285612a77565b509392505050565b600082601f830112612add57612adc6129c1565b5b8135612aed848260208601612a86565b91505092915050565b60008060008060808587031215612b1057612b0f612609565b5b6000612b1e87828801612856565b9450506020612b2f87828801612856565b9350506040612b40878288016127a1565b925050606085013567ffffffffffffffff811115612b6157612b6061260e565b5b612b6d87828801612ac8565b91505092959194509250565b60008060408385031215612b9057612b8f612609565b5b6000612b9e85828601612856565b9250506020612baf85828601612856565b9150509250929050565b7f4e487b7100000000000000000000000000000000000000000000000000000000600052602260045260246000fd5b60006002820490506001821680612c0057607f821691505b602082108103612c1357612c12612bb9565b5b50919050565b6000606082019050612c2e6000830186612815565b612c3b60208301856128ab565b612c486040830184612815565b949350505050565b6000604082019050612c656000830185612815565b612c7260208301846128ab565b9392505050565b7f53756d612064652045544820696e636f72656374207472696d69736100000000600082015250565b6000612caf601c836126d9565b9150612cba82612c79565b602082019050919050565b60006020820190508181036000830152612cde81612ca2565b9050919050565b7f4e75206d61692073756e742062696c65746520646973706f6e6962696c650000600082015250565b6000612d1b601e836126d9565b9150612d2682612ce5565b602082019050919050565b60006020820190508181036000830152612d4a81612d0e565b9050919050565b7f4e487b7100000000000000000000000000000000000000000000000000000000600052601160045260246000fd5b6000612d8b82612780565b9150612d9683612780565b9250828201905080821115612dae57612dad612d51565b5b92915050565b600081905092915050565b50565b6000612dcf600083612db4565b9150612dda82612dbf565b600082019050919050565b6000612df082612dc2565b9150819050919050565b7f5472616e73666572204554482065737561740000000000000000000000000000600082015250565b6000612e306012836126d9565b9150612e3b82612dfa565b602082019050919050565b60006020820190508181036000830152612e5f81612e23565b9050919050565b7f4e487b7100000000000000000000000000000000000000000000000000000000600052603260045260246000fd5b7f4163636573206e656175746f72697a6174000000000000000000000000000000600082015250565b6000612ecb6011836126d9565b9150612ed682612e95565b602082019050919050565b60006020820190508181036000830152612efa81612ebe565b9050919050565b600081519050919050565b600082825260208201905092915050565b6000612f2882612f01565b612f328185612f0c565b9350612f428185602086016126ea565b612f4b81612714565b840191505092915050565b6000608082019050612f6b6000830187612815565b612f786020830186612815565b612f8560408301856128ab565b8181036060830152612f978184612f1d565b905095945050505050565b600081519050612fb18161263f565b92915050565b600060208284031215612fcd57612fcc612609565b5b6000612fdb84828501612fa2565b91505092915050565b600081905092915050565b6000612ffa826126ce565b6130048185612fe4565b93506130148185602086016126ea565b80840191505092915050565b600061302c8285612fef565b91506130388284612fef565b91508190509392505050565b600061304f82612780565b915061305a83612780565b925082820390508181111561307257613071612d51565b5b92915050565b7f4e487b7100000000000000000000000000000000000000000000000000000000600052603160045260246000fd5b7f4e487b7100000000000000000000000000000000000000000000000000000000600052601260045260246000fdfea26469706673582212205be6d29183e231d67a4c691b0b00f966bffbbf90bbda1a0fc3379c4e39ec114464736f6c634300081c0033a26469706673582212209e802719b0fa19184050748c65e59d37259e07aa7036779f2c35f2fb40d09f2164736f6c634300081c0033",
  "linkReferences": {},
  "deployedLinkReferences": {}
}